{
	"simpleStorage.sol": {
		"SimpleStorage": {
			"abi": [
				{
					"inputs": [],
					"stateMutability": "nonpayable",
					"type": "constructor"
				},
				{
					"inputs": [
						{
							"internalType": "address",
							"name": "addr",
							"type": "address"
						}
					],
					"name": "checkIn",
					"outputs": [],
					"stateMutability": "nonpayable",
					"type": "function"
				},
				{
					"inputs": [
						{
							"internalType": "address",
							"name": "",
							"type": "address"
						}
					],
					"name": "claims",
					"outputs": [
						{
							"internalType": "uint256",
							"name": "id",
							"type": "uint256"
						},
						{
							"internalType": "uint256",
							"name": "timestamp",
							"type": "uint256"
						}
					],
					"stateMutability": "view",
					"type": "function"
				},
				{
					"inputs": [
						{
							"internalType": "address",
							"name": "addr",
							"type": "address"
						},
						{
							"internalType": "uint256",
							"name": "rewardId",
							"type": "uint256"
						}
					],
					"name": "exchange",
					"outputs": [],
					"stateMutability": "nonpayable",
					"type": "function"
				},
				{
					"inputs": [
						{
							"internalType": "address",
							"name": "",
							"type": "address"
						}
					],
					"name": "items",
					"outputs": [
						{
							"internalType": "uint256",
							"name": "",
							"type": "uint256"
						}
					],
					"stateMutability": "view",
					"type": "function"
				},
				{
					"inputs": [
						{
							"internalType": "address",
							"name": "",
							"type": "address"
						}
					],
					"name": "points",
					"outputs": [
						{
							"internalType": "uint256",
							"name": "",
							"type": "uint256"
						}
					],
					"stateMutability": "view",
					"type": "function"
				},
				{
					"inputs": [
						{
							"internalType": "uint256",
							"name": "",
							"type": "uint256"
						}
					],
					"name": "reward",
					"outputs": [
						{
							"internalType": "uint256",
							"name": "id",
							"type": "uint256"
						},
						{
							"internalType": "string",
							"name": "name",
							"type": "string"
						},
						{
							"internalType": "uint256",
							"name": "needPoints",
							"type": "uint256"
						},
						{
							"internalType": "uint256",
							"name": "needItems",
							"type": "uint256"
						}
					],
					"stateMutability": "view",
					"type": "function"
				}
			],
			"devdoc": {
				"kind": "dev",
				"methods": {},
				"version": 1
			},
			"evm": {
				"assembly": "    /* \"simpleStorage.sol\":60:2028  contract SimpleStorage{... */\n  mstore(0x40, 0x80)\n    /* \"simpleStorage.sol\":676:934  constructor(){... */\n  callvalue\n  dup1\n  iszero\n  tag_1\n  jumpi\n  0x00\n  dup1\n  revert\ntag_1:\n  pop\n    /* \"simpleStorage.sol\":712:748  Rewards(1, \"Poring Monster\", 150, 3) */\n  mload(0x40)\n  dup1\n  0x80\n  add\n  0x40\n  mstore\n  dup1\n    /* \"simpleStorage.sol\":720:721  1 */\n  0x01\n    /* \"simpleStorage.sol\":712:748  Rewards(1, \"Poring Monster\", 150, 3) */\n  dup2\n  mstore\n  0x20\n  add\n  mload(0x40)\n  dup1\n  0x40\n  add\n  0x40\n  mstore\n  dup1\n  0x0e\n  dup2\n  mstore\n  0x20\n  add\n  0x506f72696e67204d6f6e73746572000000000000000000000000000000000000\n  dup2\n  mstore\n  pop\n  dup2\n  mstore\n  0x20\n  add\n    /* \"simpleStorage.sol\":741:744  150 */\n  0x96\n    /* \"simpleStorage.sol\":712:748  Rewards(1, \"Poring Monster\", 150, 3) */\n  dup2\n  mstore\n  0x20\n  add\n    /* \"simpleStorage.sol\":746:747  3 */\n  0x03\n    /* \"simpleStorage.sol\":712:748  Rewards(1, \"Poring Monster\", 150, 3) */\n  dup2\n  mstore\n  pop\n    /* \"simpleStorage.sol\":700:706  reward */\n  0x02\n    /* \"simpleStorage.sol\":700:709  reward[1] */\n  0x00\n    /* \"simpleStorage.sol\":707:708  1 */\n  0x01\n    /* \"simpleStorage.sol\":700:709  reward[1] */\n  dup2\n  mstore\n  0x20\n  add\n  swap1\n  dup2\n  mstore\n  0x20\n  add\n  0x00\n  keccak256\n    /* \"simpleStorage.sol\":700:748  reward[1] = Rewards(1, \"Poring Monster\", 150, 3) */\n  0x00\n  dup3\n  add\n  mload\n  dup2\n  0x00\n  add\n  sstore\n  0x20\n  dup3\n  add\n  mload\n  dup2\n  0x01\n  add\n  swap1\n  dup2\n  tag_4\n  swap2\n  swap1\n  tag_5\n  jump\t// in\ntag_4:\n  pop\n  0x40\n  dup3\n  add\n  mload\n  dup2\n  0x02\n  add\n  sstore\n  0x60\n  dup3\n  add\n  mload\n  dup2\n  0x03\n  add\n  sstore\n  swap1\n  pop\n  pop\n    /* \"simpleStorage.sol\":771:805  Rewards(2, \"Maya Monster\", 450, 7) */\n  mload(0x40)\n  dup1\n  0x80\n  add\n  0x40\n  mstore\n  dup1\n    /* \"simpleStorage.sol\":779:780  2 */\n  0x02\n    /* \"simpleStorage.sol\":771:805  Rewards(2, \"Maya Monster\", 450, 7) */\n  dup2\n  mstore\n  0x20\n  add\n  mload(0x40)\n  dup1\n  0x40\n  add\n  0x40\n  mstore\n  dup1\n  0x0c\n  dup2\n  mstore\n  0x20\n  add\n  0x4d617961204d6f6e737465720000000000000000000000000000000000000000\n  dup2\n  mstore\n  pop\n  dup2\n  mstore\n  0x20\n  add\n    /* \"simpleStorage.sol\":798:801  450 */\n  0x01c2\n    /* \"simpleStorage.sol\":771:805  Rewards(2, \"Maya Monster\", 450, 7) */\n  dup2\n  mstore\n  0x20\n  add\n    /* \"simpleStorage.sol\":803:804  7 */\n  0x07\n    /* \"simpleStorage.sol\":771:805  Rewards(2, \"Maya Monster\", 450, 7) */\n  dup2\n  mstore\n  pop\n    /* \"simpleStorage.sol\":759:765  reward */\n  0x02\n    /* \"simpleStorage.sol\":759:768  reward[2] */\n  0x00\n    /* \"simpleStorage.sol\":766:767  2 */\n  0x02\n    /* \"simpleStorage.sol\":759:768  reward[2] */\n  dup2\n  mstore\n  0x20\n  add\n  swap1\n  dup2\n  mstore\n  0x20\n  add\n  0x00\n  keccak256\n    /* \"simpleStorage.sol\":759:805  reward[2] = Rewards(2, \"Maya Monster\", 450, 7) */\n  0x00\n  dup3\n  add\n  mload\n  dup2\n  0x00\n  add\n  sstore\n  0x20\n  dup3\n  add\n  mload\n  dup2\n  0x01\n  add\n  swap1\n  dup2\n  tag_6\n  swap2\n  swap1\n  tag_5\n  jump\t// in\ntag_6:\n  pop\n  0x40\n  dup3\n  add\n  mload\n  dup2\n  0x02\n  add\n  sstore\n  0x60\n  dup3\n  add\n  mload\n  dup2\n  0x03\n  add\n  sstore\n  swap1\n  pop\n  pop\n    /* \"simpleStorage.sol\":828:866  Rewards(3, \"Leaf Cat Monster\", 350, 4) */\n  mload(0x40)\n  dup1\n  0x80\n  add\n  0x40\n  mstore\n  dup1\n    /* \"simpleStorage.sol\":836:837  3 */\n  0x03\n    /* \"simpleStorage.sol\":828:866  Rewards(3, \"Leaf Cat Monster\", 350, 4) */\n  dup2\n  mstore\n  0x20\n  add\n  mload(0x40)\n  dup1\n  0x40\n  add\n  0x40\n  mstore\n  dup1\n  0x10\n  dup2\n  mstore\n  0x20\n  add\n  0x4c65616620436174204d6f6e7374657200000000000000000000000000000000\n  dup2\n  mstore\n  pop\n  dup2\n  mstore\n  0x20\n  add\n    /* \"simpleStorage.sol\":859:862  350 */\n  0x015e\n    /* \"simpleStorage.sol\":828:866  Rewards(3, \"Leaf Cat Monster\", 350, 4) */\n  dup2\n  mstore\n  0x20\n  add\n    /* \"simpleStorage.sol\":864:865  4 */\n  0x04\n    /* \"simpleStorage.sol\":828:866  Rewards(3, \"Leaf Cat Monster\", 350, 4) */\n  dup2\n  mstore\n  pop\n    /* \"simpleStorage.sol\":816:822  reward */\n  0x02\n    /* \"simpleStorage.sol\":816:825  reward[3] */\n  0x00\n    /* \"simpleStorage.sol\":823:824  3 */\n  0x03\n    /* \"simpleStorage.sol\":816:825  reward[3] */\n  dup2\n  mstore\n  0x20\n  add\n  swap1\n  dup2\n  mstore\n  0x20\n  add\n  0x00\n  keccak256\n    /* \"simpleStorage.sol\":816:866  reward[3] = Rewards(3, \"Leaf Cat Monster\", 350, 4) */\n  0x00\n  dup3\n  add\n  mload\n  dup2\n  0x00\n  add\n  sstore\n  0x20\n  dup3\n  add\n  mload\n  dup2\n  0x01\n  add\n  swap1\n  dup2\n  tag_7\n  swap2\n  swap1\n  tag_5\n  jump\t// in\ntag_7:\n  pop\n  0x40\n  dup3\n  add\n  mload\n  dup2\n  0x02\n  add\n  sstore\n  0x60\n  dup3\n  add\n  mload\n  dup2\n  0x03\n  add\n  sstore\n  swap1\n  pop\n  pop\n    /* \"simpleStorage.sol\":889:926  Rewards(4, \"Chimera Monster\", 400, 5) */\n  mload(0x40)\n  dup1\n  0x80\n  add\n  0x40\n  mstore\n  dup1\n    /* \"simpleStorage.sol\":897:898  4 */\n  0x04\n    /* \"simpleStorage.sol\":889:926  Rewards(4, \"Chimera Monster\", 400, 5) */\n  dup2\n  mstore\n  0x20\n  add\n  mload(0x40)\n  dup1\n  0x40\n  add\n  0x40\n  mstore\n  dup1\n  0x0f\n  dup2\n  mstore\n  0x20\n  add\n  0x4368696d657261204d6f6e737465720000000000000000000000000000000000\n  dup2\n  mstore\n  pop\n  dup2\n  mstore\n  0x20\n  add\n    /* \"simpleStorage.sol\":919:922  400 */\n  0x0190\n    /* \"simpleStorage.sol\":889:926  Rewards(4, \"Chimera Monster\", 400, 5) */\n  dup2\n  mstore\n  0x20\n  add\n    /* \"simpleStorage.sol\":924:925  5 */\n  0x05\n    /* \"simpleStorage.sol\":889:926  Rewards(4, \"Chimera Monster\", 400, 5) */\n  dup2\n  mstore\n  pop\n    /* \"simpleStorage.sol\":877:883  reward */\n  0x02\n    /* \"simpleStorage.sol\":877:886  reward[4] */\n  0x00\n    /* \"simpleStorage.sol\":884:885  4 */\n  0x04\n    /* \"simpleStorage.sol\":877:886  reward[4] */\n  dup2\n  mstore\n  0x20\n  add\n  swap1\n  dup2\n  mstore\n  0x20\n  add\n  0x00\n  keccak256\n    /* \"simpleStorage.sol\":877:926  reward[4] = Rewards(4, \"Chimera Monster\", 400, 5) */\n  0x00\n  dup3\n  add\n  mload\n  dup2\n  0x00\n  add\n  sstore\n  0x20\n  dup3\n  add\n  mload\n  dup2\n  0x01\n  add\n  swap1\n  dup2\n  tag_8\n  swap2\n  swap1\n  tag_5\n  jump\t// in\ntag_8:\n  pop\n  0x40\n  dup3\n  add\n  mload\n  dup2\n  0x02\n  add\n  sstore\n  0x60\n  dup3\n  add\n  mload\n  dup2\n  0x03\n  add\n  sstore\n  swap1\n  pop\n  pop\n    /* \"simpleStorage.sol\":60:2028  contract SimpleStorage{... */\n  jump(tag_9)\n    /* \"#utility.yul\":7:106   */\ntag_10:\n    /* \"#utility.yul\":59:65   */\n  0x00\n    /* \"#utility.yul\":93:98   */\n  dup2\n    /* \"#utility.yul\":87:99   */\n  mload\n    /* \"#utility.yul\":77:99   */\n  swap1\n  pop\n    /* \"#utility.yul\":7:106   */\n  swap2\n  swap1\n  pop\n  jump\t// out\n    /* \"#utility.yul\":112:292   */\ntag_11:\n    /* \"#utility.yul\":160:237   */\n  0x4e487b7100000000000000000000000000000000000000000000000000000000\n    /* \"#utility.yul\":157:158   */\n  0x00\n    /* \"#utility.yul\":150:238   */\n  mstore\n    /* \"#utility.yul\":257:261   */\n  0x41\n    /* \"#utility.yul\":254:255   */\n  0x04\n    /* \"#utility.yul\":247:262   */\n  mstore\n    /* \"#utility.yul\":281:285   */\n  0x24\n    /* \"#utility.yul\":278:279   */\n  0x00\n    /* \"#utility.yul\":271:286   */\n  revert\n    /* \"#utility.yul\":298:478   */\ntag_12:\n    /* \"#utility.yul\":346:423   */\n  0x4e487b7100000000000000000000000000000000000000000000000000000000\n    /* \"#utility.yul\":343:344   */\n  0x00\n    /* \"#utility.yul\":336:424   */\n  mstore\n    /* \"#utility.yul\":443:447   */\n  0x22\n    /* \"#utility.yul\":440:441   */\n  0x04\n    /* \"#utility.yul\":433:448   */\n  mstore\n    /* \"#utility.yul\":467:471   */\n  0x24\n    /* \"#utility.yul\":464:465   */\n  0x00\n    /* \"#utility.yul\":457:472   */\n  revert\n    /* \"#utility.yul\":484:804   */\ntag_13:\n    /* \"#utility.yul\":528:534   */\n  0x00\n    /* \"#utility.yul\":565:566   */\n  0x02\n    /* \"#utility.yul\":559:563   */\n  dup3\n    /* \"#utility.yul\":555:567   */\n  div\n    /* \"#utility.yul\":545:567   */\n  swap1\n  pop\n    /* \"#utility.yul\":612:613   */\n  0x01\n    /* \"#utility.yul\":606:610   */\n  dup3\n    /* \"#utility.yul\":602:614   */\n  and\n    /* \"#utility.yul\":633:651   */\n  dup1\n    /* \"#utility.yul\":623:704   */\n  tag_35\n  jumpi\n    /* \"#utility.yul\":689:693   */\n  0x7f\n    /* \"#utility.yul\":681:687   */\n  dup3\n    /* \"#utility.yul\":677:694   */\n  and\n    /* \"#utility.yul\":667:694   */\n  swap2\n  pop\n    /* \"#utility.yul\":623:704   */\ntag_35:\n    /* \"#utility.yul\":751:753   */\n  0x20\n    /* \"#utility.yul\":743:749   */\n  dup3\n    /* \"#utility.yul\":740:754   */\n  lt\n    /* \"#utility.yul\":720:738   */\n  dup2\n    /* \"#utility.yul\":717:755   */\n  sub\n    /* \"#utility.yul\":714:798   */\n  tag_36\n  jumpi\n    /* \"#utility.yul\":770:788   */\n  tag_37\n  tag_12\n  jump\t// in\ntag_37:\n    /* \"#utility.yul\":714:798   */\ntag_36:\n    /* \"#utility.yul\":535:804   */\n  pop\n    /* \"#utility.yul\":484:804   */\n  swap2\n  swap1\n  pop\n  jump\t// out\n    /* \"#utility.yul\":810:951   */\ntag_14:\n    /* \"#utility.yul\":859:863   */\n  0x00\n    /* \"#utility.yul\":882:885   */\n  dup2\n    /* \"#utility.yul\":874:885   */\n  swap1\n  pop\n    /* \"#utility.yul\":905:908   */\n  dup2\n    /* \"#utility.yul\":902:903   */\n  0x00\n    /* \"#utility.yul\":895:909   */\n  mstore\n    /* \"#utility.yul\":939:943   */\n  0x20\n    /* \"#utility.yul\":936:937   */\n  0x00\n    /* \"#utility.yul\":926:944   */\n  keccak256\n    /* \"#utility.yul\":918:944   */\n  swap1\n  pop\n    /* \"#utility.yul\":810:951   */\n  swap2\n  swap1\n  pop\n  jump\t// out\n    /* \"#utility.yul\":957:1050   */\ntag_15:\n    /* \"#utility.yul\":994:1000   */\n  0x00\n    /* \"#utility.yul\":1041:1043   */\n  0x20\n    /* \"#utility.yul\":1036:1038   */\n  0x1f\n    /* \"#utility.yul\":1029:1034   */\n  dup4\n    /* \"#utility.yul\":1025:1039   */\n  add\n    /* \"#utility.yul\":1021:1044   */\n  div\n    /* \"#utility.yul\":1011:1044   */\n  swap1\n  pop\n    /* \"#utility.yul\":957:1050   */\n  swap2\n  swap1\n  pop\n  jump\t// out\n    /* \"#utility.yul\":1056:1163   */\ntag_16:\n    /* \"#utility.yul\":1100:1108   */\n  0x00\n    /* \"#utility.yul\":1150:1155   */\n  dup3\n    /* \"#utility.yul\":1144:1148   */\n  dup3\n    /* \"#utility.yul\":1140:1156   */\n  shl\n    /* \"#utility.yul\":1119:1156   */\n  swap1\n  pop\n    /* \"#utility.yul\":1056:1163   */\n  swap3\n  swap2\n  pop\n  pop\n  jump\t// out\n    /* \"#utility.yul\":1169:1562   */\ntag_17:\n    /* \"#utility.yul\":1238:1244   */\n  0x00\n    /* \"#utility.yul\":1288:1289   */\n  0x08\n    /* \"#utility.yul\":1276:1286   */\n  dup4\n    /* \"#utility.yul\":1272:1290   */\n  mul\n    /* \"#utility.yul\":1311:1408   */\n  tag_42\n    /* \"#utility.yul\":1341:1407   */\n  0xffffffffffffffffffffffffffffffffffffffffffffffffffffffffffffffff\n    /* \"#utility.yul\":1330:1339   */\n  dup3\n    /* \"#utility.yul\":1311:1408   */\n  tag_16\n  jump\t// in\ntag_42:\n    /* \"#utility.yul\":1429:1468   */\n  tag_43\n    /* \"#utility.yul\":1459:1467   */\n  dup7\n    /* \"#utility.yul\":1448:1457   */\n  dup4\n    /* \"#utility.yul\":1429:1468   */\n  tag_16\n  jump\t// in\ntag_43:\n    /* \"#utility.yul\":1417:1468   */\n  swap6\n  pop\n    /* \"#utility.yul\":1501:1505   */\n  dup1\n    /* \"#utility.yul\":1497:1506   */\n  not\n    /* \"#utility.yul\":1490:1495   */\n  dup5\n    /* \"#utility.yul\":1486:1507   */\n  and\n    /* \"#utility.yul\":1477:1507   */\n  swap4\n  pop\n    /* \"#utility.yul\":1550:1554   */\n  dup1\n    /* \"#utility.yul\":1540:1548   */\n  dup7\n    /* \"#utility.yul\":1536:1555   */\n  and\n    /* \"#utility.yul\":1529:1534   */\n  dup5\n    /* \"#utility.yul\":1526:1556   */\n  or\n    /* \"#utility.yul\":1516:1556   */\n  swap3\n  pop\n    /* \"#utility.yul\":1245:1562   */\n  pop\n  pop\n    /* \"#utility.yul\":1169:1562   */\n  swap4\n  swap3\n  pop\n  pop\n  pop\n  jump\t// out\n    /* \"#utility.yul\":1568:1645   */\ntag_18:\n    /* \"#utility.yul\":1605:1612   */\n  0x00\n    /* \"#utility.yul\":1634:1639   */\n  dup2\n    /* \"#utility.yul\":1623:1639   */\n  swap1\n  pop\n    /* \"#utility.yul\":1568:1645   */\n  swap2\n  swap1\n  pop\n  jump\t// out\n    /* \"#utility.yul\":1651:1711   */\ntag_19:\n    /* \"#utility.yul\":1679:1682   */\n  0x00\n    /* \"#utility.yul\":1700:1705   */\n  dup2\n    /* \"#utility.yul\":1693:1705   */\n  swap1\n  pop\n    /* \"#utility.yul\":1651:1711   */\n  swap2\n  swap1\n  pop\n  jump\t// out\n    /* \"#utility.yul\":1717:1859   */\ntag_20:\n    /* \"#utility.yul\":1767:1776   */\n  0x00\n    /* \"#utility.yul\":1800:1853   */\n  tag_47\n    /* \"#utility.yul\":1818:1852   */\n  tag_48\n    /* \"#utility.yul\":1827:1851   */\n  tag_49\n    /* \"#utility.yul\":1845:1850   */\n  dup5\n    /* \"#utility.yul\":1827:1851   */\n  tag_18\n  jump\t// in\ntag_49:\n    /* \"#utility.yul\":1818:1852   */\n  tag_19\n  jump\t// in\ntag_48:\n    /* \"#utility.yul\":1800:1853   */\n  tag_18\n  jump\t// in\ntag_47:\n    /* \"#utility.yul\":1787:1853   */\n  swap1\n  pop\n    /* \"#utility.yul\":1717:1859   */\n  swap2\n  swap1\n  pop\n  jump\t// out\n    /* \"#utility.yul\":1865:1940   */\ntag_21:\n    /* \"#utility.yul\":1908:1911   */\n  0x00\n    /* \"#utility.yul\":1929:1934   */\n  dup2\n    /* \"#utility.yul\":1922:1934   */\n  swap1\n  pop\n    /* \"#utility.yul\":1865:1940   */\n  swap2\n  swap1\n  pop\n  jump\t// out\n    /* \"#utility.yul\":1946:2215   */\ntag_22:\n    /* \"#utility.yul\":2056:2095   */\n  tag_52\n    /* \"#utility.yul\":2087:2094   */\n  dup4\n    /* \"#utility.yul\":2056:2095   */\n  tag_20\n  jump\t// in\ntag_52:\n    /* \"#utility.yul\":2117:2208   */\n  tag_53\n    /* \"#utility.yul\":2166:2207   */\n  tag_54\n    /* \"#utility.yul\":2190:2206   */\n  dup3\n    /* \"#utility.yul\":2166:2207   */\n  tag_21\n  jump\t// in\ntag_54:\n    /* \"#utility.yul\":2158:2164   */\n  dup5\n    /* \"#utility.yul\":2151:2155   */\n  dup5\n    /* \"#utility.yul\":2145:2156   */\n  sload\n    /* \"#utility.yul\":2117:2208   */\n  tag_17\n  jump\t// in\ntag_53:\n    /* \"#utility.yul\":2111:2115   */\n  dup3\n    /* \"#utility.yul\":2104:2209   */\n  sstore\n    /* \"#utility.yul\":2022:2215   */\n  pop\n    /* \"#utility.yul\":1946:2215   */\n  pop\n  pop\n  pop\n  jump\t// out\n    /* \"#utility.yul\":2221:2294   */\ntag_23:\n    /* \"#utility.yul\":2266:2269   */\n  0x00\n    /* \"#utility.yul\":2221:2294   */\n  swap1\n  jump\t// out\n    /* \"#utility.yul\":2300:2489   */\ntag_24:\n    /* \"#utility.yul\":2377:2409   */\n  tag_57\n  tag_23\n  jump\t// in\ntag_57:\n    /* \"#utility.yul\":2418:2483   */\n  tag_58\n    /* \"#utility.yul\":2476:2482   */\n  dup2\n    /* \"#utility.yul\":2468:2474   */\n  dup5\n    /* \"#utility.yul\":2462:2466   */\n  dup5\n    /* \"#utility.yul\":2418:2483   */\n  tag_22\n  jump\t// in\ntag_58:\n    /* \"#utility.yul\":2353:2489   */\n  pop\n    /* \"#utility.yul\":2300:2489   */\n  pop\n  pop\n  jump\t// out\n    /* \"#utility.yul\":2495:2681   */\ntag_25:\n    /* \"#utility.yul\":2555:2675   */\ntag_60:\n    /* \"#utility.yul\":2572:2575   */\n  dup2\n    /* \"#utility.yul\":2565:2570   */\n  dup2\n    /* \"#utility.yul\":2562:2576   */\n  lt\n    /* \"#utility.yul\":2555:2675   */\n  iszero\n  tag_62\n  jumpi\n    /* \"#utility.yul\":2626:2665   */\n  tag_63\n    /* \"#utility.yul\":2663:2664   */\n  0x00\n    /* \"#utility.yul\":2656:2661   */\n  dup3\n    /* \"#utility.yul\":2626:2665   */\n  tag_24\n  jump\t// in\ntag_63:\n    /* \"#utility.yul\":2599:2600   */\n  0x01\n    /* \"#utility.yul\":2592:2597   */\n  dup2\n    /* \"#utility.yul\":2588:2601   */\n  add\n    /* \"#utility.yul\":2579:2601   */\n  swap1\n  pop\n    /* \"#utility.yul\":2555:2675   */\n  jump(tag_60)\ntag_62:\n    /* \"#utility.yul\":2495:2681   */\n  pop\n  pop\n  jump\t// out\n    /* \"#utility.yul\":2687:3230   */\ntag_26:\n    /* \"#utility.yul\":2788:2790   */\n  0x1f\n    /* \"#utility.yul\":2783:2786   */\n  dup3\n    /* \"#utility.yul\":2780:2791   */\n  gt\n    /* \"#utility.yul\":2777:3223   */\n  iszero\n  tag_65\n  jumpi\n    /* \"#utility.yul\":2822:2860   */\n  tag_66\n    /* \"#utility.yul\":2854:2859   */\n  dup2\n    /* \"#utility.yul\":2822:2860   */\n  tag_14\n  jump\t// in\ntag_66:\n    /* \"#utility.yul\":2906:2935   */\n  tag_67\n    /* \"#utility.yul\":2924:2934   */\n  dup5\n    /* \"#utility.yul\":2906:2935   */\n  tag_15\n  jump\t// in\ntag_67:\n    /* \"#utility.yul\":2896:2904   */\n  dup2\n    /* \"#utility.yul\":2892:2936   */\n  add\n    /* \"#utility.yul\":3089:3091   */\n  0x20\n    /* \"#utility.yul\":3077:3087   */\n  dup6\n    /* \"#utility.yul\":3074:3092   */\n  lt\n    /* \"#utility.yul\":3071:3120   */\n  iszero\n  tag_68\n  jumpi\n    /* \"#utility.yul\":3110:3118   */\n  dup2\n    /* \"#utility.yul\":3095:3118   */\n  swap1\n  pop\n    /* \"#utility.yul\":3071:3120   */\ntag_68:\n    /* \"#utility.yul\":3133:3213   */\n  tag_69\n    /* \"#utility.yul\":3189:3211   */\n  tag_70\n    /* \"#utility.yul\":3207:3210   */\n  dup6\n    /* \"#utility.yul\":3189:3211   */\n  tag_15\n  jump\t// in\ntag_70:\n    /* \"#utility.yul\":3179:3187   */\n  dup4\n    /* \"#utility.yul\":3175:3212   */\n  add\n    /* \"#utility.yul\":3162:3173   */\n  dup3\n    /* \"#utility.yul\":3133:3213   */\n  tag_25\n  jump\t// in\ntag_69:\n    /* \"#utility.yul\":2792:3223   */\n  pop\n  pop\n    /* \"#utility.yul\":2777:3223   */\ntag_65:\n    /* \"#utility.yul\":2687:3230   */\n  pop\n  pop\n  pop\n  jump\t// out\n    /* \"#utility.yul\":3236:3353   */\ntag_27:\n    /* \"#utility.yul\":3290:3298   */\n  0x00\n    /* \"#utility.yul\":3340:3345   */\n  dup3\n    /* \"#utility.yul\":3334:3338   */\n  dup3\n    /* \"#utility.yul\":3330:3346   */\n  shr\n    /* \"#utility.yul\":3309:3346   */\n  swap1\n  pop\n    /* \"#utility.yul\":3236:3353   */\n  swap3\n  swap2\n  pop\n  pop\n  jump\t// out\n    /* \"#utility.yul\":3359:3528   */\ntag_28:\n    /* \"#utility.yul\":3403:3409   */\n  0x00\n    /* \"#utility.yul\":3436:3487   */\n  tag_73\n    /* \"#utility.yul\":3484:3485   */\n  0x00\n    /* \"#utility.yul\":3480:3486   */\n  not\n    /* \"#utility.yul\":3472:3477   */\n  dup5\n    /* \"#utility.yul\":3469:3470   */\n  0x08\n    /* \"#utility.yul\":3465:3478   */\n  mul\n    /* \"#utility.yul\":3436:3487   */\n  tag_27\n  jump\t// in\ntag_73:\n    /* \"#utility.yul\":3432:3488   */\n  not\n    /* \"#utility.yul\":3517:3521   */\n  dup1\n    /* \"#utility.yul\":3511:3515   */\n  dup4\n    /* \"#utility.yul\":3507:3522   */\n  and\n    /* \"#utility.yul\":3497:3522   */\n  swap2\n  pop\n    /* \"#utility.yul\":3410:3528   */\n  pop\n    /* \"#utility.yul\":3359:3528   */\n  swap3\n  swap2\n  pop\n  pop\n  jump\t// out\n    /* \"#utility.yul\":3533:3828   */\ntag_29:\n    /* \"#utility.yul\":3609:3613   */\n  0x00\n    /* \"#utility.yul\":3755:3784   */\n  tag_75\n    /* \"#utility.yul\":3780:3783   */\n  dup4\n    /* \"#utility.yul\":3774:3778   */\n  dup4\n    /* \"#utility.yul\":3755:3784   */\n  tag_28\n  jump\t// in\ntag_75:\n    /* \"#utility.yul\":3747:3784   */\n  swap2\n  pop\n    /* \"#utility.yul\":3817:3820   */\n  dup3\n    /* \"#utility.yul\":3814:3815   */\n  0x02\n    /* \"#utility.yul\":3810:3821   */\n  mul\n    /* \"#utility.yul\":3804:3808   */\n  dup3\n    /* \"#utility.yul\":3801:3822   */\n  or\n    /* \"#utility.yul\":3793:3822   */\n  swap1\n  pop\n    /* \"#utility.yul\":3533:3828   */\n  swap3\n  swap2\n  pop\n  pop\n  jump\t// out\n    /* \"#utility.yul\":3833:5228   */\ntag_5:\n    /* \"#utility.yul\":3950:3987   */\n  tag_77\n    /* \"#utility.yul\":3983:3986   */\n  dup3\n    /* \"#utility.yul\":3950:3987   */\n  tag_10\n  jump\t// in\ntag_77:\n    /* \"#utility.yul\":4052:4070   */\n  0xffffffffffffffff\n    /* \"#utility.yul\":4044:4050   */\n  dup2\n    /* \"#utility.yul\":4041:4071   */\n  gt\n    /* \"#utility.yul\":4038:4094   */\n  iszero\n  tag_78\n  jumpi\n    /* \"#utility.yul\":4074:4092   */\n  tag_79\n  tag_11\n  jump\t// in\ntag_79:\n    /* \"#utility.yul\":4038:4094   */\ntag_78:\n    /* \"#utility.yul\":4118:4156   */\n  tag_80\n    /* \"#utility.yul\":4150:4154   */\n  dup3\n    /* \"#utility.yul\":4144:4155   */\n  sload\n    /* \"#utility.yul\":4118:4156   */\n  tag_13\n  jump\t// in\ntag_80:\n    /* \"#utility.yul\":4203:4270   */\n  tag_81\n    /* \"#utility.yul\":4263:4269   */\n  dup3\n    /* \"#utility.yul\":4255:4261   */\n  dup3\n    /* \"#utility.yul\":4249:4253   */\n  dup6\n    /* \"#utility.yul\":4203:4270   */\n  tag_26\n  jump\t// in\ntag_81:\n    /* \"#utility.yul\":4297:4298   */\n  0x00\n    /* \"#utility.yul\":4321:4325   */\n  0x20\n    /* \"#utility.yul\":4308:4325   */\n  swap1\n  pop\n    /* \"#utility.yul\":4353:4355   */\n  0x1f\n    /* \"#utility.yul\":4345:4351   */\n  dup4\n    /* \"#utility.yul\":4342:4356   */\n  gt\n    /* \"#utility.yul\":4370:4371   */\n  0x01\n    /* \"#utility.yul\":4365:4983   */\n  dup2\n  eq\n  tag_83\n  jumpi\n    /* \"#utility.yul\":5027:5028   */\n  0x00\n    /* \"#utility.yul\":5044:5050   */\n  dup5\n    /* \"#utility.yul\":5041:5118   */\n  iszero\n  tag_84\n  jumpi\n    /* \"#utility.yul\":5093:5102   */\n  dup3\n    /* \"#utility.yul\":5088:5091   */\n  dup8\n    /* \"#utility.yul\":5084:5103   */\n  add\n    /* \"#utility.yul\":5078:5104   */\n  mload\n    /* \"#utility.yul\":5069:5104   */\n  swap1\n  pop\n    /* \"#utility.yul\":5041:5118   */\ntag_84:\n    /* \"#utility.yul\":5144:5211   */\n  tag_85\n    /* \"#utility.yul\":5204:5210   */\n  dup6\n    /* \"#utility.yul\":5197:5202   */\n  dup3\n    /* \"#utility.yul\":5144:5211   */\n  tag_29\n  jump\t// in\ntag_85:\n    /* \"#utility.yul\":5138:5142   */\n  dup7\n    /* \"#utility.yul\":5131:5212   */\n  sstore\n    /* \"#utility.yul\":5000:5222   */\n  pop\n    /* \"#utility.yul\":4335:5222   */\n  jump(tag_82)\n    /* \"#utility.yul\":4365:4983   */\ntag_83:\n    /* \"#utility.yul\":4417:4421   */\n  0x1f\n    /* \"#utility.yul\":4413:4422   */\n  not\n    /* \"#utility.yul\":4405:4411   */\n  dup5\n    /* \"#utility.yul\":4401:4423   */\n  and\n    /* \"#utility.yul\":4451:4488   */\n  tag_86\n    /* \"#utility.yul\":4483:4487   */\n  dup7\n    /* \"#utility.yul\":4451:4488   */\n  tag_14\n  jump\t// in\ntag_86:\n    /* \"#utility.yul\":4510:4511   */\n  0x00\n    /* \"#utility.yul\":4524:4732   */\ntag_87:\n    /* \"#utility.yul\":4538:4545   */\n  dup3\n    /* \"#utility.yul\":4535:4536   */\n  dup2\n    /* \"#utility.yul\":4532:4546   */\n  lt\n    /* \"#utility.yul\":4524:4732   */\n  iszero\n  tag_89\n  jumpi\n    /* \"#utility.yul\":4617:4626   */\n  dup5\n    /* \"#utility.yul\":4612:4615   */\n  dup10\n    /* \"#utility.yul\":4608:4627   */\n  add\n    /* \"#utility.yul\":4602:4628   */\n  mload\n    /* \"#utility.yul\":4594:4600   */\n  dup3\n    /* \"#utility.yul\":4587:4629   */\n  sstore\n    /* \"#utility.yul\":4668:4669   */\n  0x01\n    /* \"#utility.yul\":4660:4666   */\n  dup3\n    /* \"#utility.yul\":4656:4670   */\n  add\n    /* \"#utility.yul\":4646:4670   */\n  swap2\n  pop\n    /* \"#utility.yul\":4715:4717   */\n  0x20\n    /* \"#utility.yul\":4704:4713   */\n  dup6\n    /* \"#utility.yul\":4700:4718   */\n  add\n    /* \"#utility.yul\":4687:4718   */\n  swap5\n  pop\n    /* \"#utility.yul\":4561:4565   */\n  0x20\n    /* \"#utility.yul\":4558:4559   */\n  dup2\n    /* \"#utility.yul\":4554:4566   */\n  add\n    /* \"#utility.yul\":4549:4566   */\n  swap1\n  pop\n    /* \"#utility.yul\":4524:4732   */\n  jump(tag_87)\ntag_89:\n    /* \"#utility.yul\":4760:4766   */\n  dup7\n    /* \"#utility.yul\":4751:4758   */\n  dup4\n    /* \"#utility.yul\":4748:4767   */\n  lt\n    /* \"#utility.yul\":4745:4924   */\n  iszero\n  tag_90\n  jumpi\n    /* \"#utility.yul\":4818:4827   */\n  dup5\n    /* \"#utility.yul\":4813:4816   */\n  dup10\n    /* \"#utility.yul\":4809:4828   */\n  add\n    /* \"#utility.yul\":4803:4829   */\n  mload\n    /* \"#utility.yul\":4861:4909   */\n  tag_91\n    /* \"#utility.yul\":4903:4907   */\n  0x1f\n    /* \"#utility.yul\":4895:4901   */\n  dup10\n    /* \"#utility.yul\":4891:4908   */\n  and\n    /* \"#utility.yul\":4880:4889   */\n  dup3\n    /* \"#utility.yul\":4861:4909   */\n  tag_28\n  jump\t// in\ntag_91:\n    /* \"#utility.yul\":4853:4859   */\n  dup4\n    /* \"#utility.yul\":4846:4910   */\n  sstore\n    /* \"#utility.yul\":4768:4924   */\n  pop\n    /* \"#utility.yul\":4745:4924   */\ntag_90:\n    /* \"#utility.yul\":4970:4971   */\n  0x01\n    /* \"#utility.yul\":4966:4967   */\n  0x02\n    /* \"#utility.yul\":4958:4964   */\n  dup9\n    /* \"#utility.yul\":4954:4968   */\n  mul\n    /* \"#utility.yul\":4950:4972   */\n  add\n    /* \"#utility.yul\":4944:4948   */\n  dup9\n    /* \"#utility.yul\":4937:4973   */\n  sstore\n    /* \"#utility.yul\":4372:4983   */\n  pop\n  pop\n  pop\n    /* \"#utility.yul\":4335:5222   */\ntag_82:\n  pop\n    /* \"#utility.yul\":3925:5228   */\n  pop\n  pop\n  pop\n    /* \"#utility.yul\":3833:5228   */\n  pop\n  pop\n  jump\t// out\n    /* \"simpleStorage.sol\":60:2028  contract SimpleStorage{... */\ntag_9:\n  dataSize(sub_0)\n  dup1\n  dataOffset(sub_0)\n  0x00\n  codecopy\n  0x00\n  return\nstop\n\nsub_0: assembly {\n        /* \"simpleStorage.sol\":60:2028  contract SimpleStorage{... */\n      mstore(0x40, 0x80)\n      callvalue\n      dup1\n      iszero\n      tag_1\n      jumpi\n      0x00\n      dup1\n      revert\n    tag_1:\n      pop\n      jumpi(tag_2, lt(calldatasize, 0x04))\n      shr(0xe0, calldataload(0x00))\n      dup1\n      0x045d0389\n      eq\n      tag_3\n      jumpi\n      dup1\n      0x358b8166\n      eq\n      tag_4\n      jumpi\n      dup1\n      0xa9fb763c\n      eq\n      tag_5\n      jumpi\n      dup1\n      0xc6788bdd\n      eq\n      tag_6\n      jumpi\n      dup1\n      0xd321411c\n      eq\n      tag_7\n      jumpi\n      dup1\n      0xd9a59e33\n      eq\n      tag_8\n      jumpi\n    tag_2:\n      0x00\n      dup1\n      revert\n        /* \"simpleStorage.sol\":1354:2025  function exchange(address addr, uint256 rewardId) public {... */\n    tag_3:\n      tag_9\n      0x04\n      dup1\n      calldatasize\n      sub\n      dup2\n      add\n      swap1\n      tag_10\n      swap2\n      swap1\n      tag_11\n      jump\t// in\n    tag_10:\n      tag_12\n      jump\t// in\n    tag_9:\n      stop\n        /* \"simpleStorage.sol\":385:426  mapping(address => uint256) public points */\n    tag_4:\n      tag_13\n      0x04\n      dup1\n      calldatasize\n      sub\n      dup2\n      add\n      swap1\n      tag_14\n      swap2\n      swap1\n      tag_15\n      jump\t// in\n    tag_14:\n      tag_16\n      jump\t// in\n    tag_13:\n      mload(0x40)\n      tag_17\n      swap2\n      swap1\n      tag_18\n      jump\t// in\n    tag_17:\n      mload(0x40)\n      dup1\n      swap2\n      sub\n      swap1\n      return\n        /* \"simpleStorage.sol\":480:521  mapping(uint256 => Rewards) public reward */\n    tag_5:\n      tag_19\n      0x04\n      dup1\n      calldatasize\n      sub\n      dup2\n      add\n      swap1\n      tag_20\n      swap2\n      swap1\n      tag_21\n      jump\t// in\n    tag_20:\n      tag_22\n      jump\t// in\n    tag_19:\n      mload(0x40)\n      tag_23\n      swap5\n      swap4\n      swap3\n      swap2\n      swap1\n      tag_24\n      jump\t// in\n    tag_23:\n      mload(0x40)\n      dup1\n      swap2\n      sub\n      swap1\n      return\n        /* \"simpleStorage.sol\":528:569  mapping(address => Claimed) public claims */\n    tag_6:\n      tag_25\n      0x04\n      dup1\n      calldatasize\n      sub\n      dup2\n      add\n      swap1\n      tag_26\n      swap2\n      swap1\n      tag_15\n      jump\t// in\n    tag_26:\n      tag_27\n      jump\t// in\n    tag_25:\n      mload(0x40)\n      tag_28\n      swap3\n      swap2\n      swap1\n      tag_29\n      jump\t// in\n    tag_28:\n      mload(0x40)\n      dup1\n      swap2\n      sub\n      swap1\n      return\n        /* \"simpleStorage.sol\":433:473  mapping(address => uint256) public items */\n    tag_7:\n      tag_30\n      0x04\n      dup1\n      calldatasize\n      sub\n      dup2\n      add\n      swap1\n      tag_31\n      swap2\n      swap1\n      tag_15\n      jump\t// in\n    tag_31:\n      tag_32\n      jump\t// in\n    tag_30:\n      mload(0x40)\n      tag_33\n      swap2\n      swap1\n      tag_18\n      jump\t// in\n    tag_33:\n      mload(0x40)\n      dup1\n      swap2\n      sub\n      swap1\n      return\n        /* \"simpleStorage.sol\":1136:1346  function checkIn(address addr) public {... */\n    tag_8:\n      tag_34\n      0x04\n      dup1\n      calldatasize\n      sub\n      dup2\n      add\n      swap1\n      tag_35\n      swap2\n      swap1\n      tag_15\n      jump\t// in\n    tag_35:\n      tag_36\n      jump\t// in\n    tag_34:\n      stop\n        /* \"simpleStorage.sol\":1354:2025  function exchange(address addr, uint256 rewardId) public {... */\n    tag_12:\n        /* \"simpleStorage.sol\":1422:1448  Rewards memory localReward */\n      0x00\n        /* \"simpleStorage.sol\":1451:1457  reward */\n      0x02\n        /* \"simpleStorage.sol\":1451:1467  reward[rewardId] */\n      0x00\n        /* \"simpleStorage.sol\":1458:1466  rewardId */\n      dup4\n        /* \"simpleStorage.sol\":1451:1467  reward[rewardId] */\n      dup2\n      mstore\n      0x20\n      add\n      swap1\n      dup2\n      mstore\n      0x20\n      add\n      0x00\n      keccak256\n        /* \"simpleStorage.sol\":1422:1467  Rewards memory localReward = reward[rewardId] */\n      mload(0x40)\n      dup1\n      0x80\n      add\n      0x40\n      mstore\n      swap1\n      dup2\n      0x00\n      dup3\n      add\n      sload\n      dup2\n      mstore\n      0x20\n      add\n      0x01\n      dup3\n      add\n      dup1\n      sload\n      tag_38\n      swap1\n      tag_39\n      jump\t// in\n    tag_38:\n      dup1\n      0x1f\n      add\n      0x20\n      dup1\n      swap2\n      div\n      mul\n      0x20\n      add\n      mload(0x40)\n      swap1\n      dup2\n      add\n      0x40\n      mstore\n      dup1\n      swap3\n      swap2\n      swap1\n      dup2\n      dup2\n      mstore\n      0x20\n      add\n      dup3\n      dup1\n      sload\n      tag_40\n      swap1\n      tag_39\n      jump\t// in\n    tag_40:\n      dup1\n      iszero\n      tag_41\n      jumpi\n      dup1\n      0x1f\n      lt\n      tag_42\n      jumpi\n      0x0100\n      dup1\n      dup4\n      sload\n      div\n      mul\n      dup4\n      mstore\n      swap2\n      0x20\n      add\n      swap2\n      jump(tag_41)\n    tag_42:\n      dup3\n      add\n      swap2\n      swap1\n      0x00\n      mstore\n      keccak256(0x00, 0x20)\n      swap1\n    tag_43:\n      dup2\n      sload\n      dup2\n      mstore\n      swap1\n      0x01\n      add\n      swap1\n      0x20\n      add\n      dup1\n      dup4\n      gt\n      tag_43\n      jumpi\n      dup3\n      swap1\n      sub\n      0x1f\n      and\n      dup3\n      add\n      swap2\n    tag_41:\n      pop\n      pop\n      pop\n      pop\n      pop\n      dup2\n      mstore\n      0x20\n      add\n      0x02\n      dup3\n      add\n      sload\n      dup2\n      mstore\n      0x20\n      add\n      0x03\n      dup3\n      add\n      sload\n      dup2\n      mstore\n      pop\n      pop\n      swap1\n      pop\n        /* \"simpleStorage.sol\":1504:1505  0 */\n      0x00\n        /* \"simpleStorage.sol\":1486:1497  localReward */\n      dup2\n        /* \"simpleStorage.sol\":1486:1500  localReward.id */\n      0x00\n      add\n      mload\n        /* \"simpleStorage.sol\":1486:1505  localReward.id != 0 */\n      sub\n        /* \"simpleStorage.sol\":1478:1531  require(localReward.id != 0, \"Reward does not exist\") */\n      tag_44\n      jumpi\n      mload(0x40)\n      0x08c379a000000000000000000000000000000000000000000000000000000000\n      dup2\n      mstore\n      0x04\n      add\n      tag_45\n      swap1\n      tag_46\n      jump\t// in\n    tag_45:\n      mload(0x40)\n      dup1\n      swap2\n      sub\n      swap1\n      revert\n    tag_44:\n        /* \"simpleStorage.sol\":1544:1562  uint256 addrPoints */\n      0x00\n        /* \"simpleStorage.sol\":1565:1571  points */\n      dup1\n        /* \"simpleStorage.sol\":1565:1577  points[addr] */\n      0x00\n        /* \"simpleStorage.sol\":1572:1576  addr */\n      dup6\n        /* \"simpleStorage.sol\":1565:1577  points[addr] */\n      0xffffffffffffffffffffffffffffffffffffffff\n      and\n      0xffffffffffffffffffffffffffffffffffffffff\n      and\n      dup2\n      mstore\n      0x20\n      add\n      swap1\n      dup2\n      mstore\n      0x20\n      add\n      0x00\n      keccak256\n      sload\n        /* \"simpleStorage.sol\":1544:1577  uint256 addrPoints = points[addr] */\n      swap1\n      pop\n        /* \"simpleStorage.sol\":1588:1605  uint256 addrItems */\n      0x00\n        /* \"simpleStorage.sol\":1608:1613  items */\n      0x01\n        /* \"simpleStorage.sol\":1608:1619  items[addr] */\n      0x00\n        /* \"simpleStorage.sol\":1614:1618  addr */\n      dup7\n        /* \"simpleStorage.sol\":1608:1619  items[addr] */\n      0xffffffffffffffffffffffffffffffffffffffff\n      and\n      0xffffffffffffffffffffffffffffffffffffffff\n      and\n      dup2\n      mstore\n      0x20\n      add\n      swap1\n      dup2\n      mstore\n      0x20\n      add\n      0x00\n      keccak256\n      sload\n        /* \"simpleStorage.sol\":1588:1619  uint256 addrItems = items[addr] */\n      swap1\n      pop\n        /* \"simpleStorage.sol\":1652:1663  localReward */\n      dup3\n        /* \"simpleStorage.sol\":1652:1674  localReward.needPoints */\n      0x40\n      add\n      mload\n        /* \"simpleStorage.sol\":1638:1648  addrPoints */\n      dup3\n        /* \"simpleStorage.sol\":1638:1674  addrPoints >= localReward.needPoints */\n      lt\n      iszero\n        /* \"simpleStorage.sol\":1630:1696  require(addrPoints >= localReward.needPoints, \"Not enough points\") */\n      tag_47\n      jumpi\n      mload(0x40)\n      0x08c379a000000000000000000000000000000000000000000000000000000000\n      dup2\n      mstore\n      0x04\n      add\n      tag_48\n      swap1\n      tag_49\n      jump\t// in\n    tag_48:\n      mload(0x40)\n      dup1\n      swap2\n      sub\n      swap1\n      revert\n    tag_47:\n        /* \"simpleStorage.sol\":1728:1739  localReward */\n      dup3\n        /* \"simpleStorage.sol\":1728:1749  localReward.needItems */\n      0x60\n      add\n      mload\n        /* \"simpleStorage.sol\":1715:1724  addrItems */\n      dup2\n        /* \"simpleStorage.sol\":1715:1749  addrItems >= localReward.needItems */\n      lt\n      iszero\n        /* \"simpleStorage.sol\":1707:1770  require(addrItems >= localReward.needItems, \"Not enough items\") */\n      tag_50\n      jumpi\n      mload(0x40)\n      0x08c379a000000000000000000000000000000000000000000000000000000000\n      dup2\n      mstore\n      0x04\n      add\n      tag_51\n      swap1\n      tag_52\n      jump\t// in\n    tag_51:\n      mload(0x40)\n      dup1\n      swap2\n      sub\n      swap1\n      revert\n    tag_50:\n        /* \"simpleStorage.sol\":1783:1800  uint256 claimTime */\n      0x00\n        /* \"simpleStorage.sol\":1803:1818  block.timestamp */\n      timestamp\n        /* \"simpleStorage.sol\":1783:1818  uint256 claimTime = block.timestamp */\n      swap1\n      pop\n        /* \"simpleStorage.sol\":1829:1854  Claimed memory localClaim */\n      0x00\n        /* \"simpleStorage.sol\":1857:1885  Claimed(rewardId, claimTime) */\n      mload(0x40)\n      dup1\n      0x40\n      add\n      0x40\n      mstore\n      dup1\n        /* \"simpleStorage.sol\":1865:1873  rewardId */\n      dup8\n        /* \"simpleStorage.sol\":1857:1885  Claimed(rewardId, claimTime) */\n      dup2\n      mstore\n      0x20\n      add\n        /* \"simpleStorage.sol\":1875:1884  claimTime */\n      dup4\n        /* \"simpleStorage.sol\":1857:1885  Claimed(rewardId, claimTime) */\n      dup2\n      mstore\n      pop\n        /* \"simpleStorage.sol\":1829:1885  Claimed memory localClaim = Claimed(rewardId, claimTime) */\n      swap1\n      pop\n        /* \"simpleStorage.sol\":1911:1921  localClaim */\n      dup1\n        /* \"simpleStorage.sol\":1896:1902  claims */\n      0x03\n        /* \"simpleStorage.sol\":1896:1908  claims[addr] */\n      0x00\n        /* \"simpleStorage.sol\":1903:1907  addr */\n      dup10\n        /* \"simpleStorage.sol\":1896:1908  claims[addr] */\n      0xffffffffffffffffffffffffffffffffffffffff\n      and\n      0xffffffffffffffffffffffffffffffffffffffff\n      and\n      dup2\n      mstore\n      0x20\n      add\n      swap1\n      dup2\n      mstore\n      0x20\n      add\n      0x00\n      keccak256\n        /* \"simpleStorage.sol\":1896:1921  claims[addr] = localClaim */\n      0x00\n      dup3\n      add\n      mload\n      dup2\n      0x00\n      add\n      sstore\n      0x20\n      dup3\n      add\n      mload\n      dup2\n      0x01\n      add\n      sstore\n      swap1\n      pop\n      pop\n        /* \"simpleStorage.sol\":1948:1959  localReward */\n      dup5\n        /* \"simpleStorage.sol\":1948:1970  localReward.needPoints */\n      0x40\n      add\n      mload\n        /* \"simpleStorage.sol\":1932:1938  points */\n      0x00\n        /* \"simpleStorage.sol\":1932:1944  points[addr] */\n      dup1\n        /* \"simpleStorage.sol\":1939:1943  addr */\n      dup10\n        /* \"simpleStorage.sol\":1932:1944  points[addr] */\n      0xffffffffffffffffffffffffffffffffffffffff\n      and\n      0xffffffffffffffffffffffffffffffffffffffff\n      and\n      dup2\n      mstore\n      0x20\n      add\n      swap1\n      dup2\n      mstore\n      0x20\n      add\n      0x00\n      keccak256\n      0x00\n        /* \"simpleStorage.sol\":1932:1970  points[addr] -= localReward.needPoints */\n      dup3\n      dup3\n      sload\n      tag_53\n      swap2\n      swap1\n      tag_54\n      jump\t// in\n    tag_53:\n      swap3\n      pop\n      pop\n      dup2\n      swap1\n      sstore\n      pop\n        /* \"simpleStorage.sol\":1996:2007  localReward */\n      dup5\n        /* \"simpleStorage.sol\":1996:2017  localReward.needItems */\n      0x60\n      add\n      mload\n        /* \"simpleStorage.sol\":1981:1986  items */\n      0x01\n        /* \"simpleStorage.sol\":1981:1992  items[addr] */\n      0x00\n        /* \"simpleStorage.sol\":1987:1991  addr */\n      dup10\n        /* \"simpleStorage.sol\":1981:1992  items[addr] */\n      0xffffffffffffffffffffffffffffffffffffffff\n      and\n      0xffffffffffffffffffffffffffffffffffffffff\n      and\n      dup2\n      mstore\n      0x20\n      add\n      swap1\n      dup2\n      mstore\n      0x20\n      add\n      0x00\n      keccak256\n      0x00\n        /* \"simpleStorage.sol\":1981:2017  items[addr] -= localReward.needItems */\n      dup3\n      dup3\n      sload\n      tag_55\n      swap2\n      swap1\n      tag_54\n      jump\t// in\n    tag_55:\n      swap3\n      pop\n      pop\n      dup2\n      swap1\n      sstore\n      pop\n        /* \"simpleStorage.sol\":1411:2025  {... */\n      pop\n      pop\n      pop\n      pop\n      pop\n        /* \"simpleStorage.sol\":1354:2025  function exchange(address addr, uint256 rewardId) public {... */\n      pop\n      pop\n      jump\t// out\n        /* \"simpleStorage.sol\":385:426  mapping(address => uint256) public points */\n    tag_16:\n      mstore(0x20, 0x00)\n      dup1\n      0x00\n      mstore\n      keccak256(0x00, 0x40)\n      0x00\n      swap2\n      pop\n      swap1\n      pop\n      sload\n      dup2\n      jump\t// out\n        /* \"simpleStorage.sol\":480:521  mapping(uint256 => Rewards) public reward */\n    tag_22:\n      mstore(0x20, 0x02)\n      dup1\n      0x00\n      mstore\n      keccak256(0x00, 0x40)\n      0x00\n      swap2\n      pop\n      swap1\n      pop\n      dup1\n      0x00\n      add\n      sload\n      swap1\n      dup1\n      0x01\n      add\n      dup1\n      sload\n      tag_56\n      swap1\n      tag_39\n      jump\t// in\n    tag_56:\n      dup1\n      0x1f\n      add\n      0x20\n      dup1\n      swap2\n      div\n      mul\n      0x20\n      add\n      mload(0x40)\n      swap1\n      dup2\n      add\n      0x40\n      mstore\n      dup1\n      swap3\n      swap2\n      swap1\n      dup2\n      dup2\n      mstore\n      0x20\n      add\n      dup3\n      dup1\n      sload\n      tag_57\n      swap1\n      tag_39\n      jump\t// in\n    tag_57:\n      dup1\n      iszero\n      tag_58\n      jumpi\n      dup1\n      0x1f\n      lt\n      tag_59\n      jumpi\n      0x0100\n      dup1\n      dup4\n      sload\n      div\n      mul\n      dup4\n      mstore\n      swap2\n      0x20\n      add\n      swap2\n      jump(tag_58)\n    tag_59:\n      dup3\n      add\n      swap2\n      swap1\n      0x00\n      mstore\n      keccak256(0x00, 0x20)\n      swap1\n    tag_60:\n      dup2\n      sload\n      dup2\n      mstore\n      swap1\n      0x01\n      add\n      swap1\n      0x20\n      add\n      dup1\n      dup4\n      gt\n      tag_60\n      jumpi\n      dup3\n      swap1\n      sub\n      0x1f\n      and\n      dup3\n      add\n      swap2\n    tag_58:\n      pop\n      pop\n      pop\n      pop\n      pop\n      swap1\n      dup1\n      0x02\n      add\n      sload\n      swap1\n      dup1\n      0x03\n      add\n      sload\n      swap1\n      pop\n      dup5\n      jump\t// out\n        /* \"simpleStorage.sol\":528:569  mapping(address => Claimed) public claims */\n    tag_27:\n      mstore(0x20, 0x03)\n      dup1\n      0x00\n      mstore\n      keccak256(0x00, 0x40)\n      0x00\n      swap2\n      pop\n      swap1\n      pop\n      dup1\n      0x00\n      add\n      sload\n      swap1\n      dup1\n      0x01\n      add\n      sload\n      swap1\n      pop\n      dup3\n      jump\t// out\n        /* \"simpleStorage.sol\":433:473  mapping(address => uint256) public items */\n    tag_32:\n      mstore(0x20, 0x01)\n      dup1\n      0x00\n      mstore\n      keccak256(0x00, 0x40)\n      0x00\n      swap2\n      pop\n      swap1\n      pop\n      sload\n      dup2\n      jump\t// out\n        /* \"simpleStorage.sol\":1136:1346  function checkIn(address addr) public {... */\n    tag_36:\n        /* \"simpleStorage.sol\":1185:1201  uint256 datetime */\n      0x00\n        /* \"simpleStorage.sol\":1204:1219  block.timestamp */\n      timestamp\n        /* \"simpleStorage.sol\":1185:1219  uint256 datetime = block.timestamp */\n      swap1\n      pop\n        /* \"simpleStorage.sol\":1230:1253  CheckIn memory userAddr */\n      0x00\n        /* \"simpleStorage.sol\":1256:1279  CheckIn(addr, datetime) */\n      mload(0x40)\n      dup1\n      0x40\n      add\n      0x40\n      mstore\n      dup1\n        /* \"simpleStorage.sol\":1264:1268  addr */\n      dup5\n        /* \"simpleStorage.sol\":1256:1279  CheckIn(addr, datetime) */\n      0xffffffffffffffffffffffffffffffffffffffff\n      and\n      dup2\n      mstore\n      0x20\n      add\n        /* \"simpleStorage.sol\":1270:1278  datetime */\n      dup4\n        /* \"simpleStorage.sol\":1256:1279  CheckIn(addr, datetime) */\n      dup2\n      mstore\n      pop\n        /* \"simpleStorage.sol\":1230:1279  CheckIn memory userAddr = CheckIn(addr, datetime) */\n      swap1\n      pop\n        /* \"simpleStorage.sol\":1290:1297  checkin */\n      0x04\n        /* \"simpleStorage.sol\":1303:1311  userAddr */\n      dup2\n        /* \"simpleStorage.sol\":1290:1312  checkin.push(userAddr) */\n      swap1\n      dup1\n      0x01\n      dup2\n      sload\n      add\n      dup1\n      dup3\n      sstore\n      dup1\n      swap2\n      pop\n      pop\n      0x01\n      swap1\n      sub\n      swap1\n      0x00\n      mstore\n      keccak256(0x00, 0x20)\n      swap1\n      0x02\n      mul\n      add\n      0x00\n      swap1\n      swap2\n      swap1\n      swap2\n      swap1\n      swap2\n      pop\n      0x00\n      dup3\n      add\n      mload\n      dup2\n      0x00\n      add\n      exp(0x0100, 0x00)\n      dup2\n      sload\n      dup2\n      0xffffffffffffffffffffffffffffffffffffffff\n      mul\n      not\n      and\n      swap1\n      dup4\n      0xffffffffffffffffffffffffffffffffffffffff\n      and\n      mul\n      or\n      swap1\n      sstore\n      pop\n      0x20\n      dup3\n      add\n      mload\n      dup2\n      0x01\n      add\n      sstore\n      pop\n      pop\n        /* \"simpleStorage.sol\":1323:1338  setPoints(addr) */\n      tag_63\n        /* \"simpleStorage.sol\":1333:1337  addr */\n      dup4\n        /* \"simpleStorage.sol\":1323:1332  setPoints */\n      tag_64\n        /* \"simpleStorage.sol\":1323:1338  setPoints(addr) */\n      jump\t// in\n    tag_63:\n        /* \"simpleStorage.sol\":1174:1346  {... */\n      pop\n      pop\n        /* \"simpleStorage.sol\":1136:1346  function checkIn(address addr) public {... */\n      pop\n      jump\t// out\n        /* \"simpleStorage.sol\":1025:1128  function setPoints(address addr) private {... */\n    tag_64:\n        /* \"simpleStorage.sol\":1093:1095  50 */\n      0x32\n        /* \"simpleStorage.sol\":1077:1083  points */\n      0x00\n        /* \"simpleStorage.sol\":1077:1089  points[addr] */\n      dup1\n        /* \"simpleStorage.sol\":1084:1088  addr */\n      dup4\n        /* \"simpleStorage.sol\":1077:1089  points[addr] */\n      0xffffffffffffffffffffffffffffffffffffffff\n      and\n      0xffffffffffffffffffffffffffffffffffffffff\n      and\n      dup2\n      mstore\n      0x20\n      add\n      swap1\n      dup2\n      mstore\n      0x20\n      add\n      0x00\n      keccak256\n      0x00\n        /* \"simpleStorage.sol\":1077:1095  points[addr] += 50 */\n      dup3\n      dup3\n      sload\n      tag_66\n      swap2\n      swap1\n      tag_67\n      jump\t// in\n    tag_66:\n      swap3\n      pop\n      pop\n      dup2\n      swap1\n      sstore\n      pop\n        /* \"simpleStorage.sol\":1106:1120  addItems(addr) */\n      tag_68\n        /* \"simpleStorage.sol\":1115:1119  addr */\n      dup2\n        /* \"simpleStorage.sol\":1106:1114  addItems */\n      tag_69\n        /* \"simpleStorage.sol\":1106:1120  addItems(addr) */\n      jump\t// in\n    tag_68:\n        /* \"simpleStorage.sol\":1025:1128  function setPoints(address addr) private {... */\n      pop\n      jump\t// out\n        /* \"simpleStorage.sol\":942:1017  function addItems(address addr) private {... */\n    tag_69:\n        /* \"simpleStorage.sol\":1008:1009  1 */\n      0x01\n        /* \"simpleStorage.sol\":993:998  items */\n      dup1\n        /* \"simpleStorage.sol\":993:1004  items[addr] */\n      0x00\n        /* \"simpleStorage.sol\":999:1003  addr */\n      dup4\n        /* \"simpleStorage.sol\":993:1004  items[addr] */\n      0xffffffffffffffffffffffffffffffffffffffff\n      and\n      0xffffffffffffffffffffffffffffffffffffffff\n      and\n      dup2\n      mstore\n      0x20\n      add\n      swap1\n      dup2\n      mstore\n      0x20\n      add\n      0x00\n      keccak256\n      0x00\n        /* \"simpleStorage.sol\":993:1009  items[addr] += 1 */\n      dup3\n      dup3\n      sload\n      tag_71\n      swap2\n      swap1\n      tag_67\n      jump\t// in\n    tag_71:\n      swap3\n      pop\n      pop\n      dup2\n      swap1\n      sstore\n      pop\n        /* \"simpleStorage.sol\":942:1017  function addItems(address addr) private {... */\n      pop\n      jump\t// out\n        /* \"#utility.yul\":88:205   */\n    tag_73:\n        /* \"#utility.yul\":197:198   */\n      0x00\n        /* \"#utility.yul\":194:195   */\n      dup1\n        /* \"#utility.yul\":187:199   */\n      revert\n        /* \"#utility.yul\":334:460   */\n    tag_75:\n        /* \"#utility.yul\":371:378   */\n      0x00\n        /* \"#utility.yul\":411:453   */\n      0xffffffffffffffffffffffffffffffffffffffff\n        /* \"#utility.yul\":404:409   */\n      dup3\n        /* \"#utility.yul\":400:454   */\n      and\n        /* \"#utility.yul\":389:454   */\n      swap1\n      pop\n        /* \"#utility.yul\":334:460   */\n      swap2\n      swap1\n      pop\n      jump\t// out\n        /* \"#utility.yul\":466:562   */\n    tag_76:\n        /* \"#utility.yul\":503:510   */\n      0x00\n        /* \"#utility.yul\":532:556   */\n      tag_102\n        /* \"#utility.yul\":550:555   */\n      dup3\n        /* \"#utility.yul\":532:556   */\n      tag_75\n      jump\t// in\n    tag_102:\n        /* \"#utility.yul\":521:556   */\n      swap1\n      pop\n        /* \"#utility.yul\":466:562   */\n      swap2\n      swap1\n      pop\n      jump\t// out\n        /* \"#utility.yul\":568:690   */\n    tag_77:\n        /* \"#utility.yul\":641:665   */\n      tag_104\n        /* \"#utility.yul\":659:664   */\n      dup2\n        /* \"#utility.yul\":641:665   */\n      tag_76\n      jump\t// in\n    tag_104:\n        /* \"#utility.yul\":634:639   */\n      dup2\n        /* \"#utility.yul\":631:666   */\n      eq\n        /* \"#utility.yul\":621:684   */\n      tag_105\n      jumpi\n        /* \"#utility.yul\":680:681   */\n      0x00\n        /* \"#utility.yul\":677:678   */\n      dup1\n        /* \"#utility.yul\":670:682   */\n      revert\n        /* \"#utility.yul\":621:684   */\n    tag_105:\n        /* \"#utility.yul\":568:690   */\n      pop\n      jump\t// out\n        /* \"#utility.yul\":696:835   */\n    tag_78:\n        /* \"#utility.yul\":742:747   */\n      0x00\n        /* \"#utility.yul\":780:786   */\n      dup2\n        /* \"#utility.yul\":767:787   */\n      calldataload\n        /* \"#utility.yul\":758:787   */\n      swap1\n      pop\n        /* \"#utility.yul\":796:829   */\n      tag_107\n        /* \"#utility.yul\":823:828   */\n      dup2\n        /* \"#utility.yul\":796:829   */\n      tag_77\n      jump\t// in\n    tag_107:\n        /* \"#utility.yul\":696:835   */\n      swap3\n      swap2\n      pop\n      pop\n      jump\t// out\n        /* \"#utility.yul\":841:918   */\n    tag_79:\n        /* \"#utility.yul\":878:885   */\n      0x00\n        /* \"#utility.yul\":907:912   */\n      dup2\n        /* \"#utility.yul\":896:912   */\n      swap1\n      pop\n        /* \"#utility.yul\":841:918   */\n      swap2\n      swap1\n      pop\n      jump\t// out\n        /* \"#utility.yul\":924:1046   */\n    tag_80:\n        /* \"#utility.yul\":997:1021   */\n      tag_110\n        /* \"#utility.yul\":1015:1020   */\n      dup2\n        /* \"#utility.yul\":997:1021   */\n      tag_79\n      jump\t// in\n    tag_110:\n        /* \"#utility.yul\":990:995   */\n      dup2\n        /* \"#utility.yul\":987:1022   */\n      eq\n        /* \"#utility.yul\":977:1040   */\n      tag_111\n      jumpi\n        /* \"#utility.yul\":1036:1037   */\n      0x00\n        /* \"#utility.yul\":1033:1034   */\n      dup1\n        /* \"#utility.yul\":1026:1038   */\n      revert\n        /* \"#utility.yul\":977:1040   */\n    tag_111:\n        /* \"#utility.yul\":924:1046   */\n      pop\n      jump\t// out\n        /* \"#utility.yul\":1052:1191   */\n    tag_81:\n        /* \"#utility.yul\":1098:1103   */\n      0x00\n        /* \"#utility.yul\":1136:1142   */\n      dup2\n        /* \"#utility.yul\":1123:1143   */\n      calldataload\n        /* \"#utility.yul\":1114:1143   */\n      swap1\n      pop\n        /* \"#utility.yul\":1152:1185   */\n      tag_113\n        /* \"#utility.yul\":1179:1184   */\n      dup2\n        /* \"#utility.yul\":1152:1185   */\n      tag_80\n      jump\t// in\n    tag_113:\n        /* \"#utility.yul\":1052:1191   */\n      swap3\n      swap2\n      pop\n      pop\n      jump\t// out\n        /* \"#utility.yul\":1197:1671   */\n    tag_11:\n        /* \"#utility.yul\":1265:1271   */\n      0x00\n        /* \"#utility.yul\":1273:1279   */\n      dup1\n        /* \"#utility.yul\":1322:1324   */\n      0x40\n        /* \"#utility.yul\":1310:1319   */\n      dup4\n        /* \"#utility.yul\":1301:1308   */\n      dup6\n        /* \"#utility.yul\":1297:1320   */\n      sub\n        /* \"#utility.yul\":1293:1325   */\n      slt\n        /* \"#utility.yul\":1290:1409   */\n      iszero\n      tag_115\n      jumpi\n        /* \"#utility.yul\":1328:1407   */\n      tag_116\n      tag_73\n      jump\t// in\n    tag_116:\n        /* \"#utility.yul\":1290:1409   */\n    tag_115:\n        /* \"#utility.yul\":1448:1449   */\n      0x00\n        /* \"#utility.yul\":1473:1526   */\n      tag_117\n        /* \"#utility.yul\":1518:1525   */\n      dup6\n        /* \"#utility.yul\":1509:1515   */\n      dup3\n        /* \"#utility.yul\":1498:1507   */\n      dup7\n        /* \"#utility.yul\":1494:1516   */\n      add\n        /* \"#utility.yul\":1473:1526   */\n      tag_78\n      jump\t// in\n    tag_117:\n        /* \"#utility.yul\":1463:1526   */\n      swap3\n      pop\n        /* \"#utility.yul\":1419:1536   */\n      pop\n        /* \"#utility.yul\":1575:1577   */\n      0x20\n        /* \"#utility.yul\":1601:1654   */\n      tag_118\n        /* \"#utility.yul\":1646:1653   */\n      dup6\n        /* \"#utility.yul\":1637:1643   */\n      dup3\n        /* \"#utility.yul\":1626:1635   */\n      dup7\n        /* \"#utility.yul\":1622:1644   */\n      add\n        /* \"#utility.yul\":1601:1654   */\n      tag_81\n      jump\t// in\n    tag_118:\n        /* \"#utility.yul\":1591:1654   */\n      swap2\n      pop\n        /* \"#utility.yul\":1546:1664   */\n      pop\n        /* \"#utility.yul\":1197:1671   */\n      swap3\n      pop\n      swap3\n      swap1\n      pop\n      jump\t// out\n        /* \"#utility.yul\":1677:2006   */\n    tag_15:\n        /* \"#utility.yul\":1736:1742   */\n      0x00\n        /* \"#utility.yul\":1785:1787   */\n      0x20\n        /* \"#utility.yul\":1773:1782   */\n      dup3\n        /* \"#utility.yul\":1764:1771   */\n      dup5\n        /* \"#utility.yul\":1760:1783   */\n      sub\n        /* \"#utility.yul\":1756:1788   */\n      slt\n        /* \"#utility.yul\":1753:1872   */\n      iszero\n      tag_120\n      jumpi\n        /* \"#utility.yul\":1791:1870   */\n      tag_121\n      tag_73\n      jump\t// in\n    tag_121:\n        /* \"#utility.yul\":1753:1872   */\n    tag_120:\n        /* \"#utility.yul\":1911:1912   */\n      0x00\n        /* \"#utility.yul\":1936:1989   */\n      tag_122\n        /* \"#utility.yul\":1981:1988   */\n      dup5\n        /* \"#utility.yul\":1972:1978   */\n      dup3\n        /* \"#utility.yul\":1961:1970   */\n      dup6\n        /* \"#utility.yul\":1957:1979   */\n      add\n        /* \"#utility.yul\":1936:1989   */\n      tag_78\n      jump\t// in\n    tag_122:\n        /* \"#utility.yul\":1926:1989   */\n      swap2\n      pop\n        /* \"#utility.yul\":1882:1999   */\n      pop\n        /* \"#utility.yul\":1677:2006   */\n      swap3\n      swap2\n      pop\n      pop\n      jump\t// out\n        /* \"#utility.yul\":2012:2130   */\n    tag_82:\n        /* \"#utility.yul\":2099:2123   */\n      tag_124\n        /* \"#utility.yul\":2117:2122   */\n      dup2\n        /* \"#utility.yul\":2099:2123   */\n      tag_79\n      jump\t// in\n    tag_124:\n        /* \"#utility.yul\":2094:2097   */\n      dup3\n        /* \"#utility.yul\":2087:2124   */\n      mstore\n        /* \"#utility.yul\":2012:2130   */\n      pop\n      pop\n      jump\t// out\n        /* \"#utility.yul\":2136:2358   */\n    tag_18:\n        /* \"#utility.yul\":2229:2233   */\n      0x00\n        /* \"#utility.yul\":2267:2269   */\n      0x20\n        /* \"#utility.yul\":2256:2265   */\n      dup3\n        /* \"#utility.yul\":2252:2270   */\n      add\n        /* \"#utility.yul\":2244:2270   */\n      swap1\n      pop\n        /* \"#utility.yul\":2280:2351   */\n      tag_126\n        /* \"#utility.yul\":2348:2349   */\n      0x00\n        /* \"#utility.yul\":2337:2346   */\n      dup4\n        /* \"#utility.yul\":2333:2350   */\n      add\n        /* \"#utility.yul\":2324:2330   */\n      dup5\n        /* \"#utility.yul\":2280:2351   */\n      tag_82\n      jump\t// in\n    tag_126:\n        /* \"#utility.yul\":2136:2358   */\n      swap3\n      swap2\n      pop\n      pop\n      jump\t// out\n        /* \"#utility.yul\":2364:2693   */\n    tag_21:\n        /* \"#utility.yul\":2423:2429   */\n      0x00\n        /* \"#utility.yul\":2472:2474   */\n      0x20\n        /* \"#utility.yul\":2460:2469   */\n      dup3\n        /* \"#utility.yul\":2451:2458   */\n      dup5\n        /* \"#utility.yul\":2447:2470   */\n      sub\n        /* \"#utility.yul\":2443:2475   */\n      slt\n        /* \"#utility.yul\":2440:2559   */\n      iszero\n      tag_128\n      jumpi\n        /* \"#utility.yul\":2478:2557   */\n      tag_129\n      tag_73\n      jump\t// in\n    tag_129:\n        /* \"#utility.yul\":2440:2559   */\n    tag_128:\n        /* \"#utility.yul\":2598:2599   */\n      0x00\n        /* \"#utility.yul\":2623:2676   */\n      tag_130\n        /* \"#utility.yul\":2668:2675   */\n      dup5\n        /* \"#utility.yul\":2659:2665   */\n      dup3\n        /* \"#utility.yul\":2648:2657   */\n      dup6\n        /* \"#utility.yul\":2644:2666   */\n      add\n        /* \"#utility.yul\":2623:2676   */\n      tag_81\n      jump\t// in\n    tag_130:\n        /* \"#utility.yul\":2613:2676   */\n      swap2\n      pop\n        /* \"#utility.yul\":2569:2686   */\n      pop\n        /* \"#utility.yul\":2364:2693   */\n      swap3\n      swap2\n      pop\n      pop\n      jump\t// out\n        /* \"#utility.yul\":2699:2798   */\n    tag_83:\n        /* \"#utility.yul\":2751:2757   */\n      0x00\n        /* \"#utility.yul\":2785:2790   */\n      dup2\n        /* \"#utility.yul\":2779:2791   */\n      mload\n        /* \"#utility.yul\":2769:2791   */\n      swap1\n      pop\n        /* \"#utility.yul\":2699:2798   */\n      swap2\n      swap1\n      pop\n      jump\t// out\n        /* \"#utility.yul\":2804:2973   */\n    tag_84:\n        /* \"#utility.yul\":2888:2899   */\n      0x00\n        /* \"#utility.yul\":2922:2928   */\n      dup3\n        /* \"#utility.yul\":2917:2920   */\n      dup3\n        /* \"#utility.yul\":2910:2929   */\n      mstore\n        /* \"#utility.yul\":2962:2966   */\n      0x20\n        /* \"#utility.yul\":2957:2960   */\n      dup3\n        /* \"#utility.yul\":2953:2967   */\n      add\n        /* \"#utility.yul\":2938:2967   */\n      swap1\n      pop\n        /* \"#utility.yul\":2804:2973   */\n      swap3\n      swap2\n      pop\n      pop\n      jump\t// out\n        /* \"#utility.yul\":2979:3118   */\n    tag_85:\n        /* \"#utility.yul\":3068:3074   */\n      dup3\n        /* \"#utility.yul\":3063:3066   */\n      dup2\n        /* \"#utility.yul\":3058:3061   */\n      dup4\n        /* \"#utility.yul\":3052:3075   */\n      mcopy\n        /* \"#utility.yul\":3109:3110   */\n      0x00\n        /* \"#utility.yul\":3100:3106   */\n      dup4\n        /* \"#utility.yul\":3095:3098   */\n      dup4\n        /* \"#utility.yul\":3091:3107   */\n      add\n        /* \"#utility.yul\":3084:3111   */\n      mstore\n        /* \"#utility.yul\":2979:3118   */\n      pop\n      pop\n      pop\n      jump\t// out\n        /* \"#utility.yul\":3124:3226   */\n    tag_86:\n        /* \"#utility.yul\":3165:3171   */\n      0x00\n        /* \"#utility.yul\":3216:3218   */\n      0x1f\n        /* \"#utility.yul\":3212:3219   */\n      not\n        /* \"#utility.yul\":3207:3209   */\n      0x1f\n        /* \"#utility.yul\":3200:3205   */\n      dup4\n        /* \"#utility.yul\":3196:3210   */\n      add\n        /* \"#utility.yul\":3192:3220   */\n      and\n        /* \"#utility.yul\":3182:3220   */\n      swap1\n      pop\n        /* \"#utility.yul\":3124:3226   */\n      swap2\n      swap1\n      pop\n      jump\t// out\n        /* \"#utility.yul\":3232:3609   */\n    tag_87:\n        /* \"#utility.yul\":3320:3323   */\n      0x00\n        /* \"#utility.yul\":3348:3387   */\n      tag_136\n        /* \"#utility.yul\":3381:3386   */\n      dup3\n        /* \"#utility.yul\":3348:3387   */\n      tag_83\n      jump\t// in\n    tag_136:\n        /* \"#utility.yul\":3403:3474   */\n      tag_137\n        /* \"#utility.yul\":3467:3473   */\n      dup2\n        /* \"#utility.yul\":3462:3465   */\n      dup6\n        /* \"#utility.yul\":3403:3474   */\n      tag_84\n      jump\t// in\n    tag_137:\n        /* \"#utility.yul\":3396:3474   */\n      swap4\n      pop\n        /* \"#utility.yul\":3483:3548   */\n      tag_138\n        /* \"#utility.yul\":3541:3547   */\n      dup2\n        /* \"#utility.yul\":3536:3539   */\n      dup6\n        /* \"#utility.yul\":3529:3533   */\n      0x20\n        /* \"#utility.yul\":3522:3527   */\n      dup7\n        /* \"#utility.yul\":3518:3534   */\n      add\n        /* \"#utility.yul\":3483:3548   */\n      tag_85\n      jump\t// in\n    tag_138:\n        /* \"#utility.yul\":3573:3602   */\n      tag_139\n        /* \"#utility.yul\":3595:3601   */\n      dup2\n        /* \"#utility.yul\":3573:3602   */\n      tag_86\n      jump\t// in\n    tag_139:\n        /* \"#utility.yul\":3568:3571   */\n      dup5\n        /* \"#utility.yul\":3564:3603   */\n      add\n        /* \"#utility.yul\":3557:3603   */\n      swap2\n      pop\n        /* \"#utility.yul\":3324:3609   */\n      pop\n        /* \"#utility.yul\":3232:3609   */\n      swap3\n      swap2\n      pop\n      pop\n      jump\t// out\n        /* \"#utility.yul\":3615:4259   */\n    tag_24:\n        /* \"#utility.yul\":3812:3816   */\n      0x00\n        /* \"#utility.yul\":3850:3853   */\n      0x80\n        /* \"#utility.yul\":3839:3848   */\n      dup3\n        /* \"#utility.yul\":3835:3854   */\n      add\n        /* \"#utility.yul\":3827:3854   */\n      swap1\n      pop\n        /* \"#utility.yul\":3864:3935   */\n      tag_141\n        /* \"#utility.yul\":3932:3933   */\n      0x00\n        /* \"#utility.yul\":3921:3930   */\n      dup4\n        /* \"#utility.yul\":3917:3934   */\n      add\n        /* \"#utility.yul\":3908:3914   */\n      dup8\n        /* \"#utility.yul\":3864:3935   */\n      tag_82\n      jump\t// in\n    tag_141:\n        /* \"#utility.yul\":3982:3991   */\n      dup2\n        /* \"#utility.yul\":3976:3980   */\n      dup2\n        /* \"#utility.yul\":3972:3992   */\n      sub\n        /* \"#utility.yul\":3967:3969   */\n      0x20\n        /* \"#utility.yul\":3956:3965   */\n      dup4\n        /* \"#utility.yul\":3952:3970   */\n      add\n        /* \"#utility.yul\":3945:3993   */\n      mstore\n        /* \"#utility.yul\":4010:4088   */\n      tag_142\n        /* \"#utility.yul\":4083:4087   */\n      dup2\n        /* \"#utility.yul\":4074:4080   */\n      dup7\n        /* \"#utility.yul\":4010:4088   */\n      tag_87\n      jump\t// in\n    tag_142:\n        /* \"#utility.yul\":4002:4088   */\n      swap1\n      pop\n        /* \"#utility.yul\":4098:4170   */\n      tag_143\n        /* \"#utility.yul\":4166:4168   */\n      0x40\n        /* \"#utility.yul\":4155:4164   */\n      dup4\n        /* \"#utility.yul\":4151:4169   */\n      add\n        /* \"#utility.yul\":4142:4148   */\n      dup6\n        /* \"#utility.yul\":4098:4170   */\n      tag_82\n      jump\t// in\n    tag_143:\n        /* \"#utility.yul\":4180:4252   */\n      tag_144\n        /* \"#utility.yul\":4248:4250   */\n      0x60\n        /* \"#utility.yul\":4237:4246   */\n      dup4\n        /* \"#utility.yul\":4233:4251   */\n      add\n        /* \"#utility.yul\":4224:4230   */\n      dup5\n        /* \"#utility.yul\":4180:4252   */\n      tag_82\n      jump\t// in\n    tag_144:\n        /* \"#utility.yul\":3615:4259   */\n      swap6\n      swap5\n      pop\n      pop\n      pop\n      pop\n      pop\n      jump\t// out\n        /* \"#utility.yul\":4265:4597   */\n    tag_29:\n        /* \"#utility.yul\":4386:4390   */\n      0x00\n        /* \"#utility.yul\":4424:4426   */\n      0x40\n        /* \"#utility.yul\":4413:4422   */\n      dup3\n        /* \"#utility.yul\":4409:4427   */\n      add\n        /* \"#utility.yul\":4401:4427   */\n      swap1\n      pop\n        /* \"#utility.yul\":4437:4508   */\n      tag_146\n        /* \"#utility.yul\":4505:4506   */\n      0x00\n        /* \"#utility.yul\":4494:4503   */\n      dup4\n        /* \"#utility.yul\":4490:4507   */\n      add\n        /* \"#utility.yul\":4481:4487   */\n      dup6\n        /* \"#utility.yul\":4437:4508   */\n      tag_82\n      jump\t// in\n    tag_146:\n        /* \"#utility.yul\":4518:4590   */\n      tag_147\n        /* \"#utility.yul\":4586:4588   */\n      0x20\n        /* \"#utility.yul\":4575:4584   */\n      dup4\n        /* \"#utility.yul\":4571:4589   */\n      add\n        /* \"#utility.yul\":4562:4568   */\n      dup5\n        /* \"#utility.yul\":4518:4590   */\n      tag_82\n      jump\t// in\n    tag_147:\n        /* \"#utility.yul\":4265:4597   */\n      swap4\n      swap3\n      pop\n      pop\n      pop\n      jump\t// out\n        /* \"#utility.yul\":4603:4783   */\n    tag_88:\n        /* \"#utility.yul\":4651:4728   */\n      0x4e487b7100000000000000000000000000000000000000000000000000000000\n        /* \"#utility.yul\":4648:4649   */\n      0x00\n        /* \"#utility.yul\":4641:4729   */\n      mstore\n        /* \"#utility.yul\":4748:4752   */\n      0x22\n        /* \"#utility.yul\":4745:4746   */\n      0x04\n        /* \"#utility.yul\":4738:4753   */\n      mstore\n        /* \"#utility.yul\":4772:4776   */\n      0x24\n        /* \"#utility.yul\":4769:4770   */\n      0x00\n        /* \"#utility.yul\":4762:4777   */\n      revert\n        /* \"#utility.yul\":4789:5109   */\n    tag_39:\n        /* \"#utility.yul\":4833:4839   */\n      0x00\n        /* \"#utility.yul\":4870:4871   */\n      0x02\n        /* \"#utility.yul\":4864:4868   */\n      dup3\n        /* \"#utility.yul\":4860:4872   */\n      div\n        /* \"#utility.yul\":4850:4872   */\n      swap1\n      pop\n        /* \"#utility.yul\":4917:4918   */\n      0x01\n        /* \"#utility.yul\":4911:4915   */\n      dup3\n        /* \"#utility.yul\":4907:4919   */\n      and\n        /* \"#utility.yul\":4938:4956   */\n      dup1\n        /* \"#utility.yul\":4928:5009   */\n      tag_150\n      jumpi\n        /* \"#utility.yul\":4994:4998   */\n      0x7f\n        /* \"#utility.yul\":4986:4992   */\n      dup3\n        /* \"#utility.yul\":4982:4999   */\n      and\n        /* \"#utility.yul\":4972:4999   */\n      swap2\n      pop\n        /* \"#utility.yul\":4928:5009   */\n    tag_150:\n        /* \"#utility.yul\":5056:5058   */\n      0x20\n        /* \"#utility.yul\":5048:5054   */\n      dup3\n        /* \"#utility.yul\":5045:5059   */\n      lt\n        /* \"#utility.yul\":5025:5043   */\n      dup2\n        /* \"#utility.yul\":5022:5060   */\n      sub\n        /* \"#utility.yul\":5019:5103   */\n      tag_151\n      jumpi\n        /* \"#utility.yul\":5075:5093   */\n      tag_152\n      tag_88\n      jump\t// in\n    tag_152:\n        /* \"#utility.yul\":5019:5103   */\n    tag_151:\n        /* \"#utility.yul\":4840:5109   */\n      pop\n        /* \"#utility.yul\":4789:5109   */\n      swap2\n      swap1\n      pop\n      jump\t// out\n        /* \"#utility.yul\":5115:5286   */\n    tag_89:\n        /* \"#utility.yul\":5255:5278   */\n      0x52657761726420646f6573206e6f742065786973740000000000000000000000\n        /* \"#utility.yul\":5251:5252   */\n      0x00\n        /* \"#utility.yul\":5243:5249   */\n      dup3\n        /* \"#utility.yul\":5239:5253   */\n      add\n        /* \"#utility.yul\":5232:5279   */\n      mstore\n        /* \"#utility.yul\":5115:5286   */\n      pop\n      jump\t// out\n        /* \"#utility.yul\":5292:5658   */\n    tag_90:\n        /* \"#utility.yul\":5434:5437   */\n      0x00\n        /* \"#utility.yul\":5455:5522   */\n      tag_155\n        /* \"#utility.yul\":5519:5521   */\n      0x15\n        /* \"#utility.yul\":5514:5517   */\n      dup4\n        /* \"#utility.yul\":5455:5522   */\n      tag_84\n      jump\t// in\n    tag_155:\n        /* \"#utility.yul\":5448:5522   */\n      swap2\n      pop\n        /* \"#utility.yul\":5531:5624   */\n      tag_156\n        /* \"#utility.yul\":5620:5623   */\n      dup3\n        /* \"#utility.yul\":5531:5624   */\n      tag_89\n      jump\t// in\n    tag_156:\n        /* \"#utility.yul\":5649:5651   */\n      0x20\n        /* \"#utility.yul\":5644:5647   */\n      dup3\n        /* \"#utility.yul\":5640:5652   */\n      add\n        /* \"#utility.yul\":5633:5652   */\n      swap1\n      pop\n        /* \"#utility.yul\":5292:5658   */\n      swap2\n      swap1\n      pop\n      jump\t// out\n        /* \"#utility.yul\":5664:6083   */\n    tag_46:\n        /* \"#utility.yul\":5830:5834   */\n      0x00\n        /* \"#utility.yul\":5868:5870   */\n      0x20\n        /* \"#utility.yul\":5857:5866   */\n      dup3\n        /* \"#utility.yul\":5853:5871   */\n      add\n        /* \"#utility.yul\":5845:5871   */\n      swap1\n      pop\n        /* \"#utility.yul\":5917:5926   */\n      dup2\n        /* \"#utility.yul\":5911:5915   */\n      dup2\n        /* \"#utility.yul\":5907:5927   */\n      sub\n        /* \"#utility.yul\":5903:5904   */\n      0x00\n        /* \"#utility.yul\":5892:5901   */\n      dup4\n        /* \"#utility.yul\":5888:5905   */\n      add\n        /* \"#utility.yul\":5881:5928   */\n      mstore\n        /* \"#utility.yul\":5945:6076   */\n      tag_158\n        /* \"#utility.yul\":6071:6075   */\n      dup2\n        /* \"#utility.yul\":5945:6076   */\n      tag_90\n      jump\t// in\n    tag_158:\n        /* \"#utility.yul\":5937:6076   */\n      swap1\n      pop\n        /* \"#utility.yul\":5664:6083   */\n      swap2\n      swap1\n      pop\n      jump\t// out\n        /* \"#utility.yul\":6089:6256   */\n    tag_91:\n        /* \"#utility.yul\":6229:6248   */\n      0x4e6f7420656e6f75676820706f696e7473000000000000000000000000000000\n        /* \"#utility.yul\":6225:6226   */\n      0x00\n        /* \"#utility.yul\":6217:6223   */\n      dup3\n        /* \"#utility.yul\":6213:6227   */\n      add\n        /* \"#utility.yul\":6206:6249   */\n      mstore\n        /* \"#utility.yul\":6089:6256   */\n      pop\n      jump\t// out\n        /* \"#utility.yul\":6262:6628   */\n    tag_92:\n        /* \"#utility.yul\":6404:6407   */\n      0x00\n        /* \"#utility.yul\":6425:6492   */\n      tag_161\n        /* \"#utility.yul\":6489:6491   */\n      0x11\n        /* \"#utility.yul\":6484:6487   */\n      dup4\n        /* \"#utility.yul\":6425:6492   */\n      tag_84\n      jump\t// in\n    tag_161:\n        /* \"#utility.yul\":6418:6492   */\n      swap2\n      pop\n        /* \"#utility.yul\":6501:6594   */\n      tag_162\n        /* \"#utility.yul\":6590:6593   */\n      dup3\n        /* \"#utility.yul\":6501:6594   */\n      tag_91\n      jump\t// in\n    tag_162:\n        /* \"#utility.yul\":6619:6621   */\n      0x20\n        /* \"#utility.yul\":6614:6617   */\n      dup3\n        /* \"#utility.yul\":6610:6622   */\n      add\n        /* \"#utility.yul\":6603:6622   */\n      swap1\n      pop\n        /* \"#utility.yul\":6262:6628   */\n      swap2\n      swap1\n      pop\n      jump\t// out\n        /* \"#utility.yul\":6634:7053   */\n    tag_49:\n        /* \"#utility.yul\":6800:6804   */\n      0x00\n        /* \"#utility.yul\":6838:6840   */\n      0x20\n        /* \"#utility.yul\":6827:6836   */\n      dup3\n        /* \"#utility.yul\":6823:6841   */\n      add\n        /* \"#utility.yul\":6815:6841   */\n      swap1\n      pop\n        /* \"#utility.yul\":6887:6896   */\n      dup2\n        /* \"#utility.yul\":6881:6885   */\n      dup2\n        /* \"#utility.yul\":6877:6897   */\n      sub\n        /* \"#utility.yul\":6873:6874   */\n      0x00\n        /* \"#utility.yul\":6862:6871   */\n      dup4\n        /* \"#utility.yul\":6858:6875   */\n      add\n        /* \"#utility.yul\":6851:6898   */\n      mstore\n        /* \"#utility.yul\":6915:7046   */\n      tag_164\n        /* \"#utility.yul\":7041:7045   */\n      dup2\n        /* \"#utility.yul\":6915:7046   */\n      tag_92\n      jump\t// in\n    tag_164:\n        /* \"#utility.yul\":6907:7046   */\n      swap1\n      pop\n        /* \"#utility.yul\":6634:7053   */\n      swap2\n      swap1\n      pop\n      jump\t// out\n        /* \"#utility.yul\":7059:7225   */\n    tag_93:\n        /* \"#utility.yul\":7199:7217   */\n      0x4e6f7420656e6f756768206974656d7300000000000000000000000000000000\n        /* \"#utility.yul\":7195:7196   */\n      0x00\n        /* \"#utility.yul\":7187:7193   */\n      dup3\n        /* \"#utility.yul\":7183:7197   */\n      add\n        /* \"#utility.yul\":7176:7218   */\n      mstore\n        /* \"#utility.yul\":7059:7225   */\n      pop\n      jump\t// out\n        /* \"#utility.yul\":7231:7597   */\n    tag_94:\n        /* \"#utility.yul\":7373:7376   */\n      0x00\n        /* \"#utility.yul\":7394:7461   */\n      tag_167\n        /* \"#utility.yul\":7458:7460   */\n      0x10\n        /* \"#utility.yul\":7453:7456   */\n      dup4\n        /* \"#utility.yul\":7394:7461   */\n      tag_84\n      jump\t// in\n    tag_167:\n        /* \"#utility.yul\":7387:7461   */\n      swap2\n      pop\n        /* \"#utility.yul\":7470:7563   */\n      tag_168\n        /* \"#utility.yul\":7559:7562   */\n      dup3\n        /* \"#utility.yul\":7470:7563   */\n      tag_93\n      jump\t// in\n    tag_168:\n        /* \"#utility.yul\":7588:7590   */\n      0x20\n        /* \"#utility.yul\":7583:7586   */\n      dup3\n        /* \"#utility.yul\":7579:7591   */\n      add\n        /* \"#utility.yul\":7572:7591   */\n      swap1\n      pop\n        /* \"#utility.yul\":7231:7597   */\n      swap2\n      swap1\n      pop\n      jump\t// out\n        /* \"#utility.yul\":7603:8022   */\n    tag_52:\n        /* \"#utility.yul\":7769:7773   */\n      0x00\n        /* \"#utility.yul\":7807:7809   */\n      0x20\n        /* \"#utility.yul\":7796:7805   */\n      dup3\n        /* \"#utility.yul\":7792:7810   */\n      add\n        /* \"#utility.yul\":7784:7810   */\n      swap1\n      pop\n        /* \"#utility.yul\":7856:7865   */\n      dup2\n        /* \"#utility.yul\":7850:7854   */\n      dup2\n        /* \"#utility.yul\":7846:7866   */\n      sub\n        /* \"#utility.yul\":7842:7843   */\n      0x00\n        /* \"#utility.yul\":7831:7840   */\n      dup4\n        /* \"#utility.yul\":7827:7844   */\n      add\n        /* \"#utility.yul\":7820:7867   */\n      mstore\n        /* \"#utility.yul\":7884:8015   */\n      tag_170\n        /* \"#utility.yul\":8010:8014   */\n      dup2\n        /* \"#utility.yul\":7884:8015   */\n      tag_94\n      jump\t// in\n    tag_170:\n        /* \"#utility.yul\":7876:8015   */\n      swap1\n      pop\n        /* \"#utility.yul\":7603:8022   */\n      swap2\n      swap1\n      pop\n      jump\t// out\n        /* \"#utility.yul\":8028:8208   */\n    tag_95:\n        /* \"#utility.yul\":8076:8153   */\n      0x4e487b7100000000000000000000000000000000000000000000000000000000\n        /* \"#utility.yul\":8073:8074   */\n      0x00\n        /* \"#utility.yul\":8066:8154   */\n      mstore\n        /* \"#utility.yul\":8173:8177   */\n      0x11\n        /* \"#utility.yul\":8170:8171   */\n      0x04\n        /* \"#utility.yul\":8163:8178   */\n      mstore\n        /* \"#utility.yul\":8197:8201   */\n      0x24\n        /* \"#utility.yul\":8194:8195   */\n      0x00\n        /* \"#utility.yul\":8187:8202   */\n      revert\n        /* \"#utility.yul\":8214:8408   */\n    tag_54:\n        /* \"#utility.yul\":8254:8258   */\n      0x00\n        /* \"#utility.yul\":8274:8294   */\n      tag_173\n        /* \"#utility.yul\":8292:8293   */\n      dup3\n        /* \"#utility.yul\":8274:8294   */\n      tag_79\n      jump\t// in\n    tag_173:\n        /* \"#utility.yul\":8269:8294   */\n      swap2\n      pop\n        /* \"#utility.yul\":8308:8328   */\n      tag_174\n        /* \"#utility.yul\":8326:8327   */\n      dup4\n        /* \"#utility.yul\":8308:8328   */\n      tag_79\n      jump\t// in\n    tag_174:\n        /* \"#utility.yul\":8303:8328   */\n      swap3\n      pop\n        /* \"#utility.yul\":8352:8353   */\n      dup3\n        /* \"#utility.yul\":8349:8350   */\n      dup3\n        /* \"#utility.yul\":8345:8354   */\n      sub\n        /* \"#utility.yul\":8337:8354   */\n      swap1\n      pop\n        /* \"#utility.yul\":8376:8377   */\n      dup2\n        /* \"#utility.yul\":8370:8374   */\n      dup2\n        /* \"#utility.yul\":8367:8378   */\n      gt\n        /* \"#utility.yul\":8364:8401   */\n      iszero\n      tag_175\n      jumpi\n        /* \"#utility.yul\":8381:8399   */\n      tag_176\n      tag_95\n      jump\t// in\n    tag_176:\n        /* \"#utility.yul\":8364:8401   */\n    tag_175:\n        /* \"#utility.yul\":8214:8408   */\n      swap3\n      swap2\n      pop\n      pop\n      jump\t// out\n        /* \"#utility.yul\":8414:8605   */\n    tag_67:\n        /* \"#utility.yul\":8454:8457   */\n      0x00\n        /* \"#utility.yul\":8473:8493   */\n      tag_178\n        /* \"#utility.yul\":8491:8492   */\n      dup3\n        /* \"#utility.yul\":8473:8493   */\n      tag_79\n      jump\t// in\n    tag_178:\n        /* \"#utility.yul\":8468:8493   */\n      swap2\n      pop\n        /* \"#utility.yul\":8507:8527   */\n      tag_179\n        /* \"#utility.yul\":8525:8526   */\n      dup4\n        /* \"#utility.yul\":8507:8527   */\n      tag_79\n      jump\t// in\n    tag_179:\n        /* \"#utility.yul\":8502:8527   */\n      swap3\n      pop\n        /* \"#utility.yul\":8550:8551   */\n      dup3\n        /* \"#utility.yul\":8547:8548   */\n      dup3\n        /* \"#utility.yul\":8543:8552   */\n      add\n        /* \"#utility.yul\":8536:8552   */\n      swap1\n      pop\n        /* \"#utility.yul\":8571:8574   */\n      dup1\n        /* \"#utility.yul\":8568:8569   */\n      dup3\n        /* \"#utility.yul\":8565:8575   */\n      gt\n        /* \"#utility.yul\":8562:8598   */\n      iszero\n      tag_180\n      jumpi\n        /* \"#utility.yul\":8578:8596   */\n      tag_181\n      tag_95\n      jump\t// in\n    tag_181:\n        /* \"#utility.yul\":8562:8598   */\n    tag_180:\n        /* \"#utility.yul\":8414:8605   */\n      swap3\n      swap2\n      pop\n      pop\n      jump\t// out\n\n    auxdata: 0xa2646970667358221220d890475b0c017fcb56169ff1d1a31a0c8c69c4c78357a79d2ce38aa16e3aa7f164736f6c634300081a0033\n}\n",
				"bytecode": {
					"linkReferences": {},
					"object": "608060405234801561000f575f80fd5b506040518060800160405280600181526020016040518060400160405280600e81526020017f506f72696e67204d6f6e73746572000000000000000000000000000000000000815250815260200160968152602001600381525060025f600181526020019081526020015f205f820151815f0155602082015181600101908161009891906104d2565b5060408201518160020155606082015181600301559050506040518060800160405280600281526020016040518060400160405280600c81526020017f4d617961204d6f6e73746572000000000000000000000000000000000000000081525081526020016101c28152602001600781525060025f600281526020019081526020015f205f820151815f0155602082015181600101908161013991906104d2565b5060408201518160020155606082015181600301559050506040518060800160405280600381526020016040518060400160405280601081526020017f4c65616620436174204d6f6e7374657200000000000000000000000000000000815250815260200161015e8152602001600481525060025f600381526020019081526020015f205f820151815f015560208201518160010190816101da91906104d2565b5060408201518160020155606082015181600301559050506040518060800160405280600481526020016040518060400160405280600f81526020017f4368696d657261204d6f6e73746572000000000000000000000000000000000081525081526020016101908152602001600581525060025f600481526020019081526020015f205f820151815f0155602082015181600101908161027b91906104d2565b5060408201518160020155606082015181600301559050506105a1565b5f81519050919050565b7f4e487b71000000000000000000000000000000000000000000000000000000005f52604160045260245ffd5b7f4e487b71000000000000000000000000000000000000000000000000000000005f52602260045260245ffd5b5f600282049050600182168061031357607f821691505b602082108103610326576103256102cf565b5b50919050565b5f819050815f5260205f209050919050565b5f6020601f8301049050919050565b5f82821b905092915050565b5f600883026103887fffffffffffffffffffffffffffffffffffffffffffffffffffffffffffffffff8261034d565b610392868361034d565b95508019841693508086168417925050509392505050565b5f819050919050565b5f819050919050565b5f6103d66103d16103cc846103aa565b6103b3565b6103aa565b9050919050565b5f819050919050565b6103ef836103bc565b6104036103fb826103dd565b848454610359565b825550505050565b5f90565b61041761040b565b6104228184846103e6565b505050565b5b818110156104455761043a5f8261040f565b600181019050610428565b5050565b601f82111561048a5761045b8161032c565b6104648461033e565b81016020851015610473578190505b61048761047f8561033e565b830182610427565b50505b505050565b5f82821c905092915050565b5f6104aa5f198460080261048f565b1980831691505092915050565b5f6104c2838361049b565b9150826002028217905092915050565b6104db82610298565b67ffffffffffffffff8111156104f4576104f36102a2565b5b6104fe82546102fc565b610509828285610449565b5f60209050601f83116001811461053a575f8415610528578287015190505b61053285826104b7565b865550610599565b601f1984166105488661032c565b5f5b8281101561056f5784890151825560018201915060208501945060208101905061054a565b8683101561058c5784890151610588601f89168261049b565b8355505b6001600288020188555050505b505050505050565b610b9a806105ae5f395ff3fe608060405234801561000f575f80fd5b5060043610610060575f3560e01c8063045d038914610064578063358b816614610080578063a9fb763c146100b0578063c6788bdd146100e3578063d321411c14610114578063d9a59e3314610144575b5f80fd5b61007e6004803603810190610079919061079f565b610160565b005b61009a600480360381019061009591906107dd565b6104a5565b6040516100a79190610817565b60405180910390f35b6100ca60048036038101906100c59190610830565b6104b9565b6040516100da94939291906108cb565b60405180910390f35b6100fd60048036038101906100f891906107dd565b61056b565b60405161010b929190610915565b60405180910390f35b61012e600480360381019061012991906107dd565b61058b565b60405161013b9190610817565b60405180910390f35b61015e600480360381019061015991906107dd565b6105a0565b005b5f60025f8381526020019081526020015f206040518060800160405290815f820154815260200160018201805461019690610969565b80601f01602080910402602001604051908101604052809291908181526020018280546101c290610969565b801561020d5780601f106101e45761010080835404028352916020019161020d565b820191905f5260205f20905b8154815290600101906020018083116101f057829003601f168201915b505050505081526020016002820154815260200160038201548152505090505f815f015103610271576040517f08c379a0000000000000000000000000000000000000000000000000000000008152600401610268906109e3565b60405180910390fd5b5f805f8573ffffffffffffffffffffffffffffffffffffffff1673ffffffffffffffffffffffffffffffffffffffff1681526020019081526020015f205490505f60015f8673ffffffffffffffffffffffffffffffffffffffff1673ffffffffffffffffffffffffffffffffffffffff1681526020019081526020015f205490508260400151821015610339576040517f08c379a000000000000000000000000000000000000000000000000000000000815260040161033090610a4b565b60405180910390fd5b8260600151811015610380576040517f08c379a000000000000000000000000000000000000000000000000000000000815260040161037790610ab3565b60405180910390fd5b5f4290505f60405180604001604052808781526020018381525090508060035f8973ffffffffffffffffffffffffffffffffffffffff1673ffffffffffffffffffffffffffffffffffffffff1681526020019081526020015f205f820151815f01556020820151816001015590505084604001515f808973ffffffffffffffffffffffffffffffffffffffff1673ffffffffffffffffffffffffffffffffffffffff1681526020019081526020015f205f82825461043e9190610afe565b92505081905550846060015160015f8973ffffffffffffffffffffffffffffffffffffffff1673ffffffffffffffffffffffffffffffffffffffff1681526020019081526020015f205f8282546104959190610afe565b9250508190555050505050505050565b5f602052805f5260405f205f915090505481565b6002602052805f5260405f205f91509050805f0154908060010180546104de90610969565b80601f016020809104026020016040519081016040528092919081815260200182805461050a90610969565b80156105555780601f1061052c57610100808354040283529160200191610555565b820191905f5260205f20905b81548152906001019060200180831161053857829003601f168201915b5050505050908060020154908060030154905084565b6003602052805f5260405f205f91509050805f0154908060010154905082565b6001602052805f5260405f205f915090505481565b5f4290505f60405180604001604052808473ffffffffffffffffffffffffffffffffffffffff168152602001838152509050600481908060018154018082558091505060019003905f5260205f2090600202015f909190919091505f820151815f015f6101000a81548173ffffffffffffffffffffffffffffffffffffffff021916908373ffffffffffffffffffffffffffffffffffffffff16021790555060208201518160010155505061065483610659565b505050565b60325f808373ffffffffffffffffffffffffffffffffffffffff1673ffffffffffffffffffffffffffffffffffffffff1681526020019081526020015f205f8282546106a59190610b31565b925050819055506106b5816106b8565b50565b6001805f8373ffffffffffffffffffffffffffffffffffffffff1673ffffffffffffffffffffffffffffffffffffffff1681526020019081526020015f205f8282546107049190610b31565b9250508190555050565b5f80fd5b5f73ffffffffffffffffffffffffffffffffffffffff82169050919050565b5f61073b82610712565b9050919050565b61074b81610731565b8114610755575f80fd5b50565b5f8135905061076681610742565b92915050565b5f819050919050565b61077e8161076c565b8114610788575f80fd5b50565b5f8135905061079981610775565b92915050565b5f80604083850312156107b5576107b461070e565b5b5f6107c285828601610758565b92505060206107d38582860161078b565b9150509250929050565b5f602082840312156107f2576107f161070e565b5b5f6107ff84828501610758565b91505092915050565b6108118161076c565b82525050565b5f60208201905061082a5f830184610808565b92915050565b5f602082840312156108455761084461070e565b5b5f6108528482850161078b565b91505092915050565b5f81519050919050565b5f82825260208201905092915050565b8281835e5f83830152505050565b5f601f19601f8301169050919050565b5f61089d8261085b565b6108a78185610865565b93506108b7818560208601610875565b6108c081610883565b840191505092915050565b5f6080820190506108de5f830187610808565b81810360208301526108f08186610893565b90506108ff6040830185610808565b61090c6060830184610808565b95945050505050565b5f6040820190506109285f830185610808565b6109356020830184610808565b9392505050565b7f4e487b71000000000000000000000000000000000000000000000000000000005f52602260045260245ffd5b5f600282049050600182168061098057607f821691505b6020821081036109935761099261093c565b5b50919050565b7f52657761726420646f6573206e6f7420657869737400000000000000000000005f82015250565b5f6109cd601583610865565b91506109d882610999565b602082019050919050565b5f6020820190508181035f8301526109fa816109c1565b9050919050565b7f4e6f7420656e6f75676820706f696e74730000000000000000000000000000005f82015250565b5f610a35601183610865565b9150610a4082610a01565b602082019050919050565b5f6020820190508181035f830152610a6281610a29565b9050919050565b7f4e6f7420656e6f756768206974656d73000000000000000000000000000000005f82015250565b5f610a9d601083610865565b9150610aa882610a69565b602082019050919050565b5f6020820190508181035f830152610aca81610a91565b9050919050565b7f4e487b71000000000000000000000000000000000000000000000000000000005f52601160045260245ffd5b5f610b088261076c565b9150610b138361076c565b9250828203905081811115610b2b57610b2a610ad1565b5b92915050565b5f610b3b8261076c565b9150610b468361076c565b9250828201905080821115610b5e57610b5d610ad1565b5b9291505056fea2646970667358221220d890475b0c017fcb56169ff1d1a31a0c8c69c4c78357a79d2ce38aa16e3aa7f164736f6c634300081a0033",
					"opcodes": "PUSH1 0x80 PUSH1 0x40 MSTORE CALLVALUE DUP1 ISZERO PUSH2 0xF JUMPI PUSH0 DUP1 REVERT JUMPDEST POP PUSH1 0x40 MLOAD DUP1 PUSH1 0x80 ADD PUSH1 0x40 MSTORE DUP1 PUSH1 0x1 DUP2 MSTORE PUSH1 0x20 ADD PUSH1 0x40 MLOAD DUP1 PUSH1 0x40 ADD PUSH1 0x40 MSTORE DUP1 PUSH1 0xE DUP2 MSTORE PUSH1 0x20 ADD PUSH32 0x506F72696E67204D6F6E73746572000000000000000000000000000000000000 DUP2 MSTORE POP DUP2 MSTORE PUSH1 0x20 ADD PUSH1 0x96 DUP2 MSTORE PUSH1 0x20 ADD PUSH1 0x3 DUP2 MSTORE POP PUSH1 0x2 PUSH0 PUSH1 0x1 DUP2 MSTORE PUSH1 0x20 ADD SWAP1 DUP2 MSTORE PUSH1 0x20 ADD PUSH0 KECCAK256 PUSH0 DUP3 ADD MLOAD DUP2 PUSH0 ADD SSTORE PUSH1 0x20 DUP3 ADD MLOAD DUP2 PUSH1 0x1 ADD SWAP1 DUP2 PUSH2 0x98 SWAP2 SWAP1 PUSH2 0x4D2 JUMP JUMPDEST POP PUSH1 0x40 DUP3 ADD MLOAD DUP2 PUSH1 0x2 ADD SSTORE PUSH1 0x60 DUP3 ADD MLOAD DUP2 PUSH1 0x3 ADD SSTORE SWAP1 POP POP PUSH1 0x40 MLOAD DUP1 PUSH1 0x80 ADD PUSH1 0x40 MSTORE DUP1 PUSH1 0x2 DUP2 MSTORE PUSH1 0x20 ADD PUSH1 0x40 MLOAD DUP1 PUSH1 0x40 ADD PUSH1 0x40 MSTORE DUP1 PUSH1 0xC DUP2 MSTORE PUSH1 0x20 ADD PUSH32 0x4D617961204D6F6E737465720000000000000000000000000000000000000000 DUP2 MSTORE POP DUP2 MSTORE PUSH1 0x20 ADD PUSH2 0x1C2 DUP2 MSTORE PUSH1 0x20 ADD PUSH1 0x7 DUP2 MSTORE POP PUSH1 0x2 PUSH0 PUSH1 0x2 DUP2 MSTORE PUSH1 0x20 ADD SWAP1 DUP2 MSTORE PUSH1 0x20 ADD PUSH0 KECCAK256 PUSH0 DUP3 ADD MLOAD DUP2 PUSH0 ADD SSTORE PUSH1 0x20 DUP3 ADD MLOAD DUP2 PUSH1 0x1 ADD SWAP1 DUP2 PUSH2 0x139 SWAP2 SWAP1 PUSH2 0x4D2 JUMP JUMPDEST POP PUSH1 0x40 DUP3 ADD MLOAD DUP2 PUSH1 0x2 ADD SSTORE PUSH1 0x60 DUP3 ADD MLOAD DUP2 PUSH1 0x3 ADD SSTORE SWAP1 POP POP PUSH1 0x40 MLOAD DUP1 PUSH1 0x80 ADD PUSH1 0x40 MSTORE DUP1 PUSH1 0x3 DUP2 MSTORE PUSH1 0x20 ADD PUSH1 0x40 MLOAD DUP1 PUSH1 0x40 ADD PUSH1 0x40 MSTORE DUP1 PUSH1 0x10 DUP2 MSTORE PUSH1 0x20 ADD PUSH32 0x4C65616620436174204D6F6E7374657200000000000000000000000000000000 DUP2 MSTORE POP DUP2 MSTORE PUSH1 0x20 ADD PUSH2 0x15E DUP2 MSTORE PUSH1 0x20 ADD PUSH1 0x4 DUP2 MSTORE POP PUSH1 0x2 PUSH0 PUSH1 0x3 DUP2 MSTORE PUSH1 0x20 ADD SWAP1 DUP2 MSTORE PUSH1 0x20 ADD PUSH0 KECCAK256 PUSH0 DUP3 ADD MLOAD DUP2 PUSH0 ADD SSTORE PUSH1 0x20 DUP3 ADD MLOAD DUP2 PUSH1 0x1 ADD SWAP1 DUP2 PUSH2 0x1DA SWAP2 SWAP1 PUSH2 0x4D2 JUMP JUMPDEST POP PUSH1 0x40 DUP3 ADD MLOAD DUP2 PUSH1 0x2 ADD SSTORE PUSH1 0x60 DUP3 ADD MLOAD DUP2 PUSH1 0x3 ADD SSTORE SWAP1 POP POP PUSH1 0x40 MLOAD DUP1 PUSH1 0x80 ADD PUSH1 0x40 MSTORE DUP1 PUSH1 0x4 DUP2 MSTORE PUSH1 0x20 ADD PUSH1 0x40 MLOAD DUP1 PUSH1 0x40 ADD PUSH1 0x40 MSTORE DUP1 PUSH1 0xF DUP2 MSTORE PUSH1 0x20 ADD PUSH32 0x4368696D657261204D6F6E737465720000000000000000000000000000000000 DUP2 MSTORE POP DUP2 MSTORE PUSH1 0x20 ADD PUSH2 0x190 DUP2 MSTORE PUSH1 0x20 ADD PUSH1 0x5 DUP2 MSTORE POP PUSH1 0x2 PUSH0 PUSH1 0x4 DUP2 MSTORE PUSH1 0x20 ADD SWAP1 DUP2 MSTORE PUSH1 0x20 ADD PUSH0 KECCAK256 PUSH0 DUP3 ADD MLOAD DUP2 PUSH0 ADD SSTORE PUSH1 0x20 DUP3 ADD MLOAD DUP2 PUSH1 0x1 ADD SWAP1 DUP2 PUSH2 0x27B SWAP2 SWAP1 PUSH2 0x4D2 JUMP JUMPDEST POP PUSH1 0x40 DUP3 ADD MLOAD DUP2 PUSH1 0x2 ADD SSTORE PUSH1 0x60 DUP3 ADD MLOAD DUP2 PUSH1 0x3 ADD SSTORE SWAP1 POP POP PUSH2 0x5A1 JUMP JUMPDEST PUSH0 DUP2 MLOAD SWAP1 POP SWAP2 SWAP1 POP JUMP JUMPDEST PUSH32 0x4E487B7100000000000000000000000000000000000000000000000000000000 PUSH0 MSTORE PUSH1 0x41 PUSH1 0x4 MSTORE PUSH1 0x24 PUSH0 REVERT JUMPDEST PUSH32 0x4E487B7100000000000000000000000000000000000000000000000000000000 PUSH0 MSTORE PUSH1 0x22 PUSH1 0x4 MSTORE PUSH1 0x24 PUSH0 REVERT JUMPDEST PUSH0 PUSH1 0x2 DUP3 DIV SWAP1 POP PUSH1 0x1 DUP3 AND DUP1 PUSH2 0x313 JUMPI PUSH1 0x7F DUP3 AND SWAP2 POP JUMPDEST PUSH1 0x20 DUP3 LT DUP2 SUB PUSH2 0x326 JUMPI PUSH2 0x325 PUSH2 0x2CF JUMP JUMPDEST JUMPDEST POP SWAP2 SWAP1 POP JUMP JUMPDEST PUSH0 DUP2 SWAP1 POP DUP2 PUSH0 MSTORE PUSH1 0x20 PUSH0 KECCAK256 SWAP1 POP SWAP2 SWAP1 POP JUMP JUMPDEST PUSH0 PUSH1 0x20 PUSH1 0x1F DUP4 ADD DIV SWAP1 POP SWAP2 SWAP1 POP JUMP JUMPDEST PUSH0 DUP3 DUP3 SHL SWAP1 POP SWAP3 SWAP2 POP POP JUMP JUMPDEST PUSH0 PUSH1 0x8 DUP4 MUL PUSH2 0x388 PUSH32 0xFFFFFFFFFFFFFFFFFFFFFFFFFFFFFFFFFFFFFFFFFFFFFFFFFFFFFFFFFFFFFFFF DUP3 PUSH2 0x34D JUMP JUMPDEST PUSH2 0x392 DUP7 DUP4 PUSH2 0x34D JUMP JUMPDEST SWAP6 POP DUP1 NOT DUP5 AND SWAP4 POP DUP1 DUP7 AND DUP5 OR SWAP3 POP POP POP SWAP4 SWAP3 POP POP POP JUMP JUMPDEST PUSH0 DUP2 SWAP1 POP SWAP2 SWAP1 POP JUMP JUMPDEST PUSH0 DUP2 SWAP1 POP SWAP2 SWAP1 POP JUMP JUMPDEST PUSH0 PUSH2 0x3D6 PUSH2 0x3D1 PUSH2 0x3CC DUP5 PUSH2 0x3AA JUMP JUMPDEST PUSH2 0x3B3 JUMP JUMPDEST PUSH2 0x3AA JUMP JUMPDEST SWAP1 POP SWAP2 SWAP1 POP JUMP JUMPDEST PUSH0 DUP2 SWAP1 POP SWAP2 SWAP1 POP JUMP JUMPDEST PUSH2 0x3EF DUP4 PUSH2 0x3BC JUMP JUMPDEST PUSH2 0x403 PUSH2 0x3FB DUP3 PUSH2 0x3DD JUMP JUMPDEST DUP5 DUP5 SLOAD PUSH2 0x359 JUMP JUMPDEST DUP3 SSTORE POP POP POP POP JUMP JUMPDEST PUSH0 SWAP1 JUMP JUMPDEST PUSH2 0x417 PUSH2 0x40B JUMP JUMPDEST PUSH2 0x422 DUP2 DUP5 DUP5 PUSH2 0x3E6 JUMP JUMPDEST POP POP POP JUMP JUMPDEST JUMPDEST DUP2 DUP2 LT ISZERO PUSH2 0x445 JUMPI PUSH2 0x43A PUSH0 DUP3 PUSH2 0x40F JUMP JUMPDEST PUSH1 0x1 DUP2 ADD SWAP1 POP PUSH2 0x428 JUMP JUMPDEST POP POP JUMP JUMPDEST PUSH1 0x1F DUP3 GT ISZERO PUSH2 0x48A JUMPI PUSH2 0x45B DUP2 PUSH2 0x32C JUMP JUMPDEST PUSH2 0x464 DUP5 PUSH2 0x33E JUMP JUMPDEST DUP2 ADD PUSH1 0x20 DUP6 LT ISZERO PUSH2 0x473 JUMPI DUP2 SWAP1 POP JUMPDEST PUSH2 0x487 PUSH2 0x47F DUP6 PUSH2 0x33E JUMP JUMPDEST DUP4 ADD DUP3 PUSH2 0x427 JUMP JUMPDEST POP POP JUMPDEST POP POP POP JUMP JUMPDEST PUSH0 DUP3 DUP3 SHR SWAP1 POP SWAP3 SWAP2 POP POP JUMP JUMPDEST PUSH0 PUSH2 0x4AA PUSH0 NOT DUP5 PUSH1 0x8 MUL PUSH2 0x48F JUMP JUMPDEST NOT DUP1 DUP4 AND SWAP2 POP POP SWAP3 SWAP2 POP POP JUMP JUMPDEST PUSH0 PUSH2 0x4C2 DUP4 DUP4 PUSH2 0x49B JUMP JUMPDEST SWAP2 POP DUP3 PUSH1 0x2 MUL DUP3 OR SWAP1 POP SWAP3 SWAP2 POP POP JUMP JUMPDEST PUSH2 0x4DB DUP3 PUSH2 0x298 JUMP JUMPDEST PUSH8 0xFFFFFFFFFFFFFFFF DUP2 GT ISZERO PUSH2 0x4F4 JUMPI PUSH2 0x4F3 PUSH2 0x2A2 JUMP JUMPDEST JUMPDEST PUSH2 0x4FE DUP3 SLOAD PUSH2 0x2FC JUMP JUMPDEST PUSH2 0x509 DUP3 DUP3 DUP6 PUSH2 0x449 JUMP JUMPDEST PUSH0 PUSH1 0x20 SWAP1 POP PUSH1 0x1F DUP4 GT PUSH1 0x1 DUP2 EQ PUSH2 0x53A JUMPI PUSH0 DUP5 ISZERO PUSH2 0x528 JUMPI DUP3 DUP8 ADD MLOAD SWAP1 POP JUMPDEST PUSH2 0x532 DUP6 DUP3 PUSH2 0x4B7 JUMP JUMPDEST DUP7 SSTORE POP PUSH2 0x599 JUMP JUMPDEST PUSH1 0x1F NOT DUP5 AND PUSH2 0x548 DUP7 PUSH2 0x32C JUMP JUMPDEST PUSH0 JUMPDEST DUP3 DUP2 LT ISZERO PUSH2 0x56F JUMPI DUP5 DUP10 ADD MLOAD DUP3 SSTORE PUSH1 0x1 DUP3 ADD SWAP2 POP PUSH1 0x20 DUP6 ADD SWAP5 POP PUSH1 0x20 DUP2 ADD SWAP1 POP PUSH2 0x54A JUMP JUMPDEST DUP7 DUP4 LT ISZERO PUSH2 0x58C JUMPI DUP5 DUP10 ADD MLOAD PUSH2 0x588 PUSH1 0x1F DUP10 AND DUP3 PUSH2 0x49B JUMP JUMPDEST DUP4 SSTORE POP JUMPDEST PUSH1 0x1 PUSH1 0x2 DUP9 MUL ADD DUP9 SSTORE POP POP POP JUMPDEST POP POP POP POP POP POP JUMP JUMPDEST PUSH2 0xB9A DUP1 PUSH2 0x5AE PUSH0 CODECOPY PUSH0 RETURN INVALID PUSH1 0x80 PUSH1 0x40 MSTORE CALLVALUE DUP1 ISZERO PUSH2 0xF JUMPI PUSH0 DUP1 REVERT JUMPDEST POP PUSH1 0x4 CALLDATASIZE LT PUSH2 0x60 JUMPI PUSH0 CALLDATALOAD PUSH1 0xE0 SHR DUP1 PUSH4 0x45D0389 EQ PUSH2 0x64 JUMPI DUP1 PUSH4 0x358B8166 EQ PUSH2 0x80 JUMPI DUP1 PUSH4 0xA9FB763C EQ PUSH2 0xB0 JUMPI DUP1 PUSH4 0xC6788BDD EQ PUSH2 0xE3 JUMPI DUP1 PUSH4 0xD321411C EQ PUSH2 0x114 JUMPI DUP1 PUSH4 0xD9A59E33 EQ PUSH2 0x144 JUMPI JUMPDEST PUSH0 DUP1 REVERT JUMPDEST PUSH2 0x7E PUSH1 0x4 DUP1 CALLDATASIZE SUB DUP2 ADD SWAP1 PUSH2 0x79 SWAP2 SWAP1 PUSH2 0x79F JUMP JUMPDEST PUSH2 0x160 JUMP JUMPDEST STOP JUMPDEST PUSH2 0x9A PUSH1 0x4 DUP1 CALLDATASIZE SUB DUP2 ADD SWAP1 PUSH2 0x95 SWAP2 SWAP1 PUSH2 0x7DD JUMP JUMPDEST PUSH2 0x4A5 JUMP JUMPDEST PUSH1 0x40 MLOAD PUSH2 0xA7 SWAP2 SWAP1 PUSH2 0x817 JUMP JUMPDEST PUSH1 0x40 MLOAD DUP1 SWAP2 SUB SWAP1 RETURN JUMPDEST PUSH2 0xCA PUSH1 0x4 DUP1 CALLDATASIZE SUB DUP2 ADD SWAP1 PUSH2 0xC5 SWAP2 SWAP1 PUSH2 0x830 JUMP JUMPDEST PUSH2 0x4B9 JUMP JUMPDEST PUSH1 0x40 MLOAD PUSH2 0xDA SWAP5 SWAP4 SWAP3 SWAP2 SWAP1 PUSH2 0x8CB JUMP JUMPDEST PUSH1 0x40 MLOAD DUP1 SWAP2 SUB SWAP1 RETURN JUMPDEST PUSH2 0xFD PUSH1 0x4 DUP1 CALLDATASIZE SUB DUP2 ADD SWAP1 PUSH2 0xF8 SWAP2 SWAP1 PUSH2 0x7DD JUMP JUMPDEST PUSH2 0x56B JUMP JUMPDEST PUSH1 0x40 MLOAD PUSH2 0x10B SWAP3 SWAP2 SWAP1 PUSH2 0x915 JUMP JUMPDEST PUSH1 0x40 MLOAD DUP1 SWAP2 SUB SWAP1 RETURN JUMPDEST PUSH2 0x12E PUSH1 0x4 DUP1 CALLDATASIZE SUB DUP2 ADD SWAP1 PUSH2 0x129 SWAP2 SWAP1 PUSH2 0x7DD JUMP JUMPDEST PUSH2 0x58B JUMP JUMPDEST PUSH1 0x40 MLOAD PUSH2 0x13B SWAP2 SWAP1 PUSH2 0x817 JUMP JUMPDEST PUSH1 0x40 MLOAD DUP1 SWAP2 SUB SWAP1 RETURN JUMPDEST PUSH2 0x15E PUSH1 0x4 DUP1 CALLDATASIZE SUB DUP2 ADD SWAP1 PUSH2 0x159 SWAP2 SWAP1 PUSH2 0x7DD JUMP JUMPDEST PUSH2 0x5A0 JUMP JUMPDEST STOP JUMPDEST PUSH0 PUSH1 0x2 PUSH0 DUP4 DUP2 MSTORE PUSH1 0x20 ADD SWAP1 DUP2 MSTORE PUSH1 0x20 ADD PUSH0 KECCAK256 PUSH1 0x40 MLOAD DUP1 PUSH1 0x80 ADD PUSH1 0x40 MSTORE SWAP1 DUP2 PUSH0 DUP3 ADD SLOAD DUP2 MSTORE PUSH1 0x20 ADD PUSH1 0x1 DUP3 ADD DUP1 SLOAD PUSH2 0x196 SWAP1 PUSH2 0x969 JUMP JUMPDEST DUP1 PUSH1 0x1F ADD PUSH1 0x20 DUP1 SWAP2 DIV MUL PUSH1 0x20 ADD PUSH1 0x40 MLOAD SWAP1 DUP2 ADD PUSH1 0x40 MSTORE DUP1 SWAP3 SWAP2 SWAP1 DUP2 DUP2 MSTORE PUSH1 0x20 ADD DUP3 DUP1 SLOAD PUSH2 0x1C2 SWAP1 PUSH2 0x969 JUMP JUMPDEST DUP1 ISZERO PUSH2 0x20D JUMPI DUP1 PUSH1 0x1F LT PUSH2 0x1E4 JUMPI PUSH2 0x100 DUP1 DUP4 SLOAD DIV MUL DUP4 MSTORE SWAP2 PUSH1 0x20 ADD SWAP2 PUSH2 0x20D JUMP JUMPDEST DUP3 ADD SWAP2 SWAP1 PUSH0 MSTORE PUSH1 0x20 PUSH0 KECCAK256 SWAP1 JUMPDEST DUP2 SLOAD DUP2 MSTORE SWAP1 PUSH1 0x1 ADD SWAP1 PUSH1 0x20 ADD DUP1 DUP4 GT PUSH2 0x1F0 JUMPI DUP3 SWAP1 SUB PUSH1 0x1F AND DUP3 ADD SWAP2 JUMPDEST POP POP POP POP POP DUP2 MSTORE PUSH1 0x20 ADD PUSH1 0x2 DUP3 ADD SLOAD DUP2 MSTORE PUSH1 0x20 ADD PUSH1 0x3 DUP3 ADD SLOAD DUP2 MSTORE POP POP SWAP1 POP PUSH0 DUP2 PUSH0 ADD MLOAD SUB PUSH2 0x271 JUMPI PUSH1 0x40 MLOAD PUSH32 0x8C379A000000000000000000000000000000000000000000000000000000000 DUP2 MSTORE PUSH1 0x4 ADD PUSH2 0x268 SWAP1 PUSH2 0x9E3 JUMP JUMPDEST PUSH1 0x40 MLOAD DUP1 SWAP2 SUB SWAP1 REVERT JUMPDEST PUSH0 DUP1 PUSH0 DUP6 PUSH20 0xFFFFFFFFFFFFFFFFFFFFFFFFFFFFFFFFFFFFFFFF AND PUSH20 0xFFFFFFFFFFFFFFFFFFFFFFFFFFFFFFFFFFFFFFFF AND DUP2 MSTORE PUSH1 0x20 ADD SWAP1 DUP2 MSTORE PUSH1 0x20 ADD PUSH0 KECCAK256 SLOAD SWAP1 POP PUSH0 PUSH1 0x1 PUSH0 DUP7 PUSH20 0xFFFFFFFFFFFFFFFFFFFFFFFFFFFFFFFFFFFFFFFF AND PUSH20 0xFFFFFFFFFFFFFFFFFFFFFFFFFFFFFFFFFFFFFFFF AND DUP2 MSTORE PUSH1 0x20 ADD SWAP1 DUP2 MSTORE PUSH1 0x20 ADD PUSH0 KECCAK256 SLOAD SWAP1 POP DUP3 PUSH1 0x40 ADD MLOAD DUP3 LT ISZERO PUSH2 0x339 JUMPI PUSH1 0x40 MLOAD PUSH32 0x8C379A000000000000000000000000000000000000000000000000000000000 DUP2 MSTORE PUSH1 0x4 ADD PUSH2 0x330 SWAP1 PUSH2 0xA4B JUMP JUMPDEST PUSH1 0x40 MLOAD DUP1 SWAP2 SUB SWAP1 REVERT JUMPDEST DUP3 PUSH1 0x60 ADD MLOAD DUP2 LT ISZERO PUSH2 0x380 JUMPI PUSH1 0x40 MLOAD PUSH32 0x8C379A000000000000000000000000000000000000000000000000000000000 DUP2 MSTORE PUSH1 0x4 ADD PUSH2 0x377 SWAP1 PUSH2 0xAB3 JUMP JUMPDEST PUSH1 0x40 MLOAD DUP1 SWAP2 SUB SWAP1 REVERT JUMPDEST PUSH0 TIMESTAMP SWAP1 POP PUSH0 PUSH1 0x40 MLOAD DUP1 PUSH1 0x40 ADD PUSH1 0x40 MSTORE DUP1 DUP8 DUP2 MSTORE PUSH1 0x20 ADD DUP4 DUP2 MSTORE POP SWAP1 POP DUP1 PUSH1 0x3 PUSH0 DUP10 PUSH20 0xFFFFFFFFFFFFFFFFFFFFFFFFFFFFFFFFFFFFFFFF AND PUSH20 0xFFFFFFFFFFFFFFFFFFFFFFFFFFFFFFFFFFFFFFFF AND DUP2 MSTORE PUSH1 0x20 ADD SWAP1 DUP2 MSTORE PUSH1 0x20 ADD PUSH0 KECCAK256 PUSH0 DUP3 ADD MLOAD DUP2 PUSH0 ADD SSTORE PUSH1 0x20 DUP3 ADD MLOAD DUP2 PUSH1 0x1 ADD SSTORE SWAP1 POP POP DUP5 PUSH1 0x40 ADD MLOAD PUSH0 DUP1 DUP10 PUSH20 0xFFFFFFFFFFFFFFFFFFFFFFFFFFFFFFFFFFFFFFFF AND PUSH20 0xFFFFFFFFFFFFFFFFFFFFFFFFFFFFFFFFFFFFFFFF AND DUP2 MSTORE PUSH1 0x20 ADD SWAP1 DUP2 MSTORE PUSH1 0x20 ADD PUSH0 KECCAK256 PUSH0 DUP3 DUP3 SLOAD PUSH2 0x43E SWAP2 SWAP1 PUSH2 0xAFE JUMP JUMPDEST SWAP3 POP POP DUP2 SWAP1 SSTORE POP DUP5 PUSH1 0x60 ADD MLOAD PUSH1 0x1 PUSH0 DUP10 PUSH20 0xFFFFFFFFFFFFFFFFFFFFFFFFFFFFFFFFFFFFFFFF AND PUSH20 0xFFFFFFFFFFFFFFFFFFFFFFFFFFFFFFFFFFFFFFFF AND DUP2 MSTORE PUSH1 0x20 ADD SWAP1 DUP2 MSTORE PUSH1 0x20 ADD PUSH0 KECCAK256 PUSH0 DUP3 DUP3 SLOAD PUSH2 0x495 SWAP2 SWAP1 PUSH2 0xAFE JUMP JUMPDEST SWAP3 POP POP DUP2 SWAP1 SSTORE POP POP POP POP POP POP POP POP JUMP JUMPDEST PUSH0 PUSH1 0x20 MSTORE DUP1 PUSH0 MSTORE PUSH1 0x40 PUSH0 KECCAK256 PUSH0 SWAP2 POP SWAP1 POP SLOAD DUP2 JUMP JUMPDEST PUSH1 0x2 PUSH1 0x20 MSTORE DUP1 PUSH0 MSTORE PUSH1 0x40 PUSH0 KECCAK256 PUSH0 SWAP2 POP SWAP1 POP DUP1 PUSH0 ADD SLOAD SWAP1 DUP1 PUSH1 0x1 ADD DUP1 SLOAD PUSH2 0x4DE SWAP1 PUSH2 0x969 JUMP JUMPDEST DUP1 PUSH1 0x1F ADD PUSH1 0x20 DUP1 SWAP2 DIV MUL PUSH1 0x20 ADD PUSH1 0x40 MLOAD SWAP1 DUP2 ADD PUSH1 0x40 MSTORE DUP1 SWAP3 SWAP2 SWAP1 DUP2 DUP2 MSTORE PUSH1 0x20 ADD DUP3 DUP1 SLOAD PUSH2 0x50A SWAP1 PUSH2 0x969 JUMP JUMPDEST DUP1 ISZERO PUSH2 0x555 JUMPI DUP1 PUSH1 0x1F LT PUSH2 0x52C JUMPI PUSH2 0x100 DUP1 DUP4 SLOAD DIV MUL DUP4 MSTORE SWAP2 PUSH1 0x20 ADD SWAP2 PUSH2 0x555 JUMP JUMPDEST DUP3 ADD SWAP2 SWAP1 PUSH0 MSTORE PUSH1 0x20 PUSH0 KECCAK256 SWAP1 JUMPDEST DUP2 SLOAD DUP2 MSTORE SWAP1 PUSH1 0x1 ADD SWAP1 PUSH1 0x20 ADD DUP1 DUP4 GT PUSH2 0x538 JUMPI DUP3 SWAP1 SUB PUSH1 0x1F AND DUP3 ADD SWAP2 JUMPDEST POP POP POP POP POP SWAP1 DUP1 PUSH1 0x2 ADD SLOAD SWAP1 DUP1 PUSH1 0x3 ADD SLOAD SWAP1 POP DUP5 JUMP JUMPDEST PUSH1 0x3 PUSH1 0x20 MSTORE DUP1 PUSH0 MSTORE PUSH1 0x40 PUSH0 KECCAK256 PUSH0 SWAP2 POP SWAP1 POP DUP1 PUSH0 ADD SLOAD SWAP1 DUP1 PUSH1 0x1 ADD SLOAD SWAP1 POP DUP3 JUMP JUMPDEST PUSH1 0x1 PUSH1 0x20 MSTORE DUP1 PUSH0 MSTORE PUSH1 0x40 PUSH0 KECCAK256 PUSH0 SWAP2 POP SWAP1 POP SLOAD DUP2 JUMP JUMPDEST PUSH0 TIMESTAMP SWAP1 POP PUSH0 PUSH1 0x40 MLOAD DUP1 PUSH1 0x40 ADD PUSH1 0x40 MSTORE DUP1 DUP5 PUSH20 0xFFFFFFFFFFFFFFFFFFFFFFFFFFFFFFFFFFFFFFFF AND DUP2 MSTORE PUSH1 0x20 ADD DUP4 DUP2 MSTORE POP SWAP1 POP PUSH1 0x4 DUP2 SWAP1 DUP1 PUSH1 0x1 DUP2 SLOAD ADD DUP1 DUP3 SSTORE DUP1 SWAP2 POP POP PUSH1 0x1 SWAP1 SUB SWAP1 PUSH0 MSTORE PUSH1 0x20 PUSH0 KECCAK256 SWAP1 PUSH1 0x2 MUL ADD PUSH0 SWAP1 SWAP2 SWAP1 SWAP2 SWAP1 SWAP2 POP PUSH0 DUP3 ADD MLOAD DUP2 PUSH0 ADD PUSH0 PUSH2 0x100 EXP DUP2 SLOAD DUP2 PUSH20 0xFFFFFFFFFFFFFFFFFFFFFFFFFFFFFFFFFFFFFFFF MUL NOT AND SWAP1 DUP4 PUSH20 0xFFFFFFFFFFFFFFFFFFFFFFFFFFFFFFFFFFFFFFFF AND MUL OR SWAP1 SSTORE POP PUSH1 0x20 DUP3 ADD MLOAD DUP2 PUSH1 0x1 ADD SSTORE POP POP PUSH2 0x654 DUP4 PUSH2 0x659 JUMP JUMPDEST POP POP POP JUMP JUMPDEST PUSH1 0x32 PUSH0 DUP1 DUP4 PUSH20 0xFFFFFFFFFFFFFFFFFFFFFFFFFFFFFFFFFFFFFFFF AND PUSH20 0xFFFFFFFFFFFFFFFFFFFFFFFFFFFFFFFFFFFFFFFF AND DUP2 MSTORE PUSH1 0x20 ADD SWAP1 DUP2 MSTORE PUSH1 0x20 ADD PUSH0 KECCAK256 PUSH0 DUP3 DUP3 SLOAD PUSH2 0x6A5 SWAP2 SWAP1 PUSH2 0xB31 JUMP JUMPDEST SWAP3 POP POP DUP2 SWAP1 SSTORE POP PUSH2 0x6B5 DUP2 PUSH2 0x6B8 JUMP JUMPDEST POP JUMP JUMPDEST PUSH1 0x1 DUP1 PUSH0 DUP4 PUSH20 0xFFFFFFFFFFFFFFFFFFFFFFFFFFFFFFFFFFFFFFFF AND PUSH20 0xFFFFFFFFFFFFFFFFFFFFFFFFFFFFFFFFFFFFFFFF AND DUP2 MSTORE PUSH1 0x20 ADD SWAP1 DUP2 MSTORE PUSH1 0x20 ADD PUSH0 KECCAK256 PUSH0 DUP3 DUP3 SLOAD PUSH2 0x704 SWAP2 SWAP1 PUSH2 0xB31 JUMP JUMPDEST SWAP3 POP POP DUP2 SWAP1 SSTORE POP POP JUMP JUMPDEST PUSH0 DUP1 REVERT JUMPDEST PUSH0 PUSH20 0xFFFFFFFFFFFFFFFFFFFFFFFFFFFFFFFFFFFFFFFF DUP3 AND SWAP1 POP SWAP2 SWAP1 POP JUMP JUMPDEST PUSH0 PUSH2 0x73B DUP3 PUSH2 0x712 JUMP JUMPDEST SWAP1 POP SWAP2 SWAP1 POP JUMP JUMPDEST PUSH2 0x74B DUP2 PUSH2 0x731 JUMP JUMPDEST DUP2 EQ PUSH2 0x755 JUMPI PUSH0 DUP1 REVERT JUMPDEST POP JUMP JUMPDEST PUSH0 DUP2 CALLDATALOAD SWAP1 POP PUSH2 0x766 DUP2 PUSH2 0x742 JUMP JUMPDEST SWAP3 SWAP2 POP POP JUMP JUMPDEST PUSH0 DUP2 SWAP1 POP SWAP2 SWAP1 POP JUMP JUMPDEST PUSH2 0x77E DUP2 PUSH2 0x76C JUMP JUMPDEST DUP2 EQ PUSH2 0x788 JUMPI PUSH0 DUP1 REVERT JUMPDEST POP JUMP JUMPDEST PUSH0 DUP2 CALLDATALOAD SWAP1 POP PUSH2 0x799 DUP2 PUSH2 0x775 JUMP JUMPDEST SWAP3 SWAP2 POP POP JUMP JUMPDEST PUSH0 DUP1 PUSH1 0x40 DUP4 DUP6 SUB SLT ISZERO PUSH2 0x7B5 JUMPI PUSH2 0x7B4 PUSH2 0x70E JUMP JUMPDEST JUMPDEST PUSH0 PUSH2 0x7C2 DUP6 DUP3 DUP7 ADD PUSH2 0x758 JUMP JUMPDEST SWAP3 POP POP PUSH1 0x20 PUSH2 0x7D3 DUP6 DUP3 DUP7 ADD PUSH2 0x78B JUMP JUMPDEST SWAP2 POP POP SWAP3 POP SWAP3 SWAP1 POP JUMP JUMPDEST PUSH0 PUSH1 0x20 DUP3 DUP5 SUB SLT ISZERO PUSH2 0x7F2 JUMPI PUSH2 0x7F1 PUSH2 0x70E JUMP JUMPDEST JUMPDEST PUSH0 PUSH2 0x7FF DUP5 DUP3 DUP6 ADD PUSH2 0x758 JUMP JUMPDEST SWAP2 POP POP SWAP3 SWAP2 POP POP JUMP JUMPDEST PUSH2 0x811 DUP2 PUSH2 0x76C JUMP JUMPDEST DUP3 MSTORE POP POP JUMP JUMPDEST PUSH0 PUSH1 0x20 DUP3 ADD SWAP1 POP PUSH2 0x82A PUSH0 DUP4 ADD DUP5 PUSH2 0x808 JUMP JUMPDEST SWAP3 SWAP2 POP POP JUMP JUMPDEST PUSH0 PUSH1 0x20 DUP3 DUP5 SUB SLT ISZERO PUSH2 0x845 JUMPI PUSH2 0x844 PUSH2 0x70E JUMP JUMPDEST JUMPDEST PUSH0 PUSH2 0x852 DUP5 DUP3 DUP6 ADD PUSH2 0x78B JUMP JUMPDEST SWAP2 POP POP SWAP3 SWAP2 POP POP JUMP JUMPDEST PUSH0 DUP2 MLOAD SWAP1 POP SWAP2 SWAP1 POP JUMP JUMPDEST PUSH0 DUP3 DUP3 MSTORE PUSH1 0x20 DUP3 ADD SWAP1 POP SWAP3 SWAP2 POP POP JUMP JUMPDEST DUP3 DUP2 DUP4 MCOPY PUSH0 DUP4 DUP4 ADD MSTORE POP POP POP JUMP JUMPDEST PUSH0 PUSH1 0x1F NOT PUSH1 0x1F DUP4 ADD AND SWAP1 POP SWAP2 SWAP1 POP JUMP JUMPDEST PUSH0 PUSH2 0x89D DUP3 PUSH2 0x85B JUMP JUMPDEST PUSH2 0x8A7 DUP2 DUP6 PUSH2 0x865 JUMP JUMPDEST SWAP4 POP PUSH2 0x8B7 DUP2 DUP6 PUSH1 0x20 DUP7 ADD PUSH2 0x875 JUMP JUMPDEST PUSH2 0x8C0 DUP2 PUSH2 0x883 JUMP JUMPDEST DUP5 ADD SWAP2 POP POP SWAP3 SWAP2 POP POP JUMP JUMPDEST PUSH0 PUSH1 0x80 DUP3 ADD SWAP1 POP PUSH2 0x8DE PUSH0 DUP4 ADD DUP8 PUSH2 0x808 JUMP JUMPDEST DUP2 DUP2 SUB PUSH1 0x20 DUP4 ADD MSTORE PUSH2 0x8F0 DUP2 DUP7 PUSH2 0x893 JUMP JUMPDEST SWAP1 POP PUSH2 0x8FF PUSH1 0x40 DUP4 ADD DUP6 PUSH2 0x808 JUMP JUMPDEST PUSH2 0x90C PUSH1 0x60 DUP4 ADD DUP5 PUSH2 0x808 JUMP JUMPDEST SWAP6 SWAP5 POP POP POP POP POP JUMP JUMPDEST PUSH0 PUSH1 0x40 DUP3 ADD SWAP1 POP PUSH2 0x928 PUSH0 DUP4 ADD DUP6 PUSH2 0x808 JUMP JUMPDEST PUSH2 0x935 PUSH1 0x20 DUP4 ADD DUP5 PUSH2 0x808 JUMP JUMPDEST SWAP4 SWAP3 POP POP POP JUMP JUMPDEST PUSH32 0x4E487B7100000000000000000000000000000000000000000000000000000000 PUSH0 MSTORE PUSH1 0x22 PUSH1 0x4 MSTORE PUSH1 0x24 PUSH0 REVERT JUMPDEST PUSH0 PUSH1 0x2 DUP3 DIV SWAP1 POP PUSH1 0x1 DUP3 AND DUP1 PUSH2 0x980 JUMPI PUSH1 0x7F DUP3 AND SWAP2 POP JUMPDEST PUSH1 0x20 DUP3 LT DUP2 SUB PUSH2 0x993 JUMPI PUSH2 0x992 PUSH2 0x93C JUMP JUMPDEST JUMPDEST POP SWAP2 SWAP1 POP JUMP JUMPDEST PUSH32 0x52657761726420646F6573206E6F742065786973740000000000000000000000 PUSH0 DUP3 ADD MSTORE POP JUMP JUMPDEST PUSH0 PUSH2 0x9CD PUSH1 0x15 DUP4 PUSH2 0x865 JUMP JUMPDEST SWAP2 POP PUSH2 0x9D8 DUP3 PUSH2 0x999 JUMP JUMPDEST PUSH1 0x20 DUP3 ADD SWAP1 POP SWAP2 SWAP1 POP JUMP JUMPDEST PUSH0 PUSH1 0x20 DUP3 ADD SWAP1 POP DUP2 DUP2 SUB PUSH0 DUP4 ADD MSTORE PUSH2 0x9FA DUP2 PUSH2 0x9C1 JUMP JUMPDEST SWAP1 POP SWAP2 SWAP1 POP JUMP JUMPDEST PUSH32 0x4E6F7420656E6F75676820706F696E7473000000000000000000000000000000 PUSH0 DUP3 ADD MSTORE POP JUMP JUMPDEST PUSH0 PUSH2 0xA35 PUSH1 0x11 DUP4 PUSH2 0x865 JUMP JUMPDEST SWAP2 POP PUSH2 0xA40 DUP3 PUSH2 0xA01 JUMP JUMPDEST PUSH1 0x20 DUP3 ADD SWAP1 POP SWAP2 SWAP1 POP JUMP JUMPDEST PUSH0 PUSH1 0x20 DUP3 ADD SWAP1 POP DUP2 DUP2 SUB PUSH0 DUP4 ADD MSTORE PUSH2 0xA62 DUP2 PUSH2 0xA29 JUMP JUMPDEST SWAP1 POP SWAP2 SWAP1 POP JUMP JUMPDEST PUSH32 0x4E6F7420656E6F756768206974656D7300000000000000000000000000000000 PUSH0 DUP3 ADD MSTORE POP JUMP JUMPDEST PUSH0 PUSH2 0xA9D PUSH1 0x10 DUP4 PUSH2 0x865 JUMP JUMPDEST SWAP2 POP PUSH2 0xAA8 DUP3 PUSH2 0xA69 JUMP JUMPDEST PUSH1 0x20 DUP3 ADD SWAP1 POP SWAP2 SWAP1 POP JUMP JUMPDEST PUSH0 PUSH1 0x20 DUP3 ADD SWAP1 POP DUP2 DUP2 SUB PUSH0 DUP4 ADD MSTORE PUSH2 0xACA DUP2 PUSH2 0xA91 JUMP JUMPDEST SWAP1 POP SWAP2 SWAP1 POP JUMP JUMPDEST PUSH32 0x4E487B7100000000000000000000000000000000000000000000000000000000 PUSH0 MSTORE PUSH1 0x11 PUSH1 0x4 MSTORE PUSH1 0x24 PUSH0 REVERT JUMPDEST PUSH0 PUSH2 0xB08 DUP3 PUSH2 0x76C JUMP JUMPDEST SWAP2 POP PUSH2 0xB13 DUP4 PUSH2 0x76C JUMP JUMPDEST SWAP3 POP DUP3 DUP3 SUB SWAP1 POP DUP2 DUP2 GT ISZERO PUSH2 0xB2B JUMPI PUSH2 0xB2A PUSH2 0xAD1 JUMP JUMPDEST JUMPDEST SWAP3 SWAP2 POP POP JUMP JUMPDEST PUSH0 PUSH2 0xB3B DUP3 PUSH2 0x76C JUMP JUMPDEST SWAP2 POP PUSH2 0xB46 DUP4 PUSH2 0x76C JUMP JUMPDEST SWAP3 POP DUP3 DUP3 ADD SWAP1 POP DUP1 DUP3 GT ISZERO PUSH2 0xB5E JUMPI PUSH2 0xB5D PUSH2 0xAD1 JUMP JUMPDEST JUMPDEST SWAP3 SWAP2 POP POP JUMP INVALID LOG2 PUSH5 0x6970667358 0x22 SLT KECCAK256 0xD8 SWAP1 SELFBALANCE JUMPDEST 0xC ADD PUSH32 0xCB56169FF1D1A31A0C8C69C4C78357A79D2CE38AA16E3AA7F164736F6C634300 ADDMOD BYTE STOP CALLER "
				},
				"gasEstimates": {
					"creation": {
						"codeDepositCost": "594000",
						"executionCost": "infinite",
						"totalCost": "infinite"
					},
					"external": {
						"checkIn(address)": "infinite",
						"claims(address)": "infinite",
						"exchange(address,uint256)": "infinite",
						"items(address)": "2868",
						"points(address)": "2801",
						"reward(uint256)": "infinite"
					},
					"internal": {
						"addItems(address)": "infinite",
						"setPoints(address)": "infinite"
					}
				},
				"methodIdentifiers": {
					"checkIn(address)": "d9a59e33",
					"claims(address)": "c6788bdd",
					"exchange(address,uint256)": "045d0389",
					"items(address)": "d321411c",
					"points(address)": "358b8166",
					"reward(uint256)": "a9fb763c"
				}
			},
			"storageLayout": {
				"storage": [
					{
						"astId": 24,
						"contract": "simpleStorage.sol:SimpleStorage",
						"label": "points",
						"offset": 0,
						"slot": "0",
						"type": "t_mapping(t_address,t_uint256)"
					},
					{
						"astId": 28,
						"contract": "simpleStorage.sol:SimpleStorage",
						"label": "items",
						"offset": 0,
						"slot": "1",
						"type": "t_mapping(t_address,t_uint256)"
					},
					{
						"astId": 33,
						"contract": "simpleStorage.sol:SimpleStorage",
						"label": "reward",
						"offset": 0,
						"slot": "2",
						"type": "t_mapping(t_uint256,t_struct(Rewards)15_storage)"
					},
					{
						"astId": 38,
						"contract": "simpleStorage.sol:SimpleStorage",
						"label": "claims",
						"offset": 0,
						"slot": "3",
						"type": "t_mapping(t_address,t_struct(Claimed)20_storage)"
					},
					{
						"astId": 42,
						"contract": "simpleStorage.sol:SimpleStorage",
						"label": "checkin",
						"offset": 0,
						"slot": "4",
						"type": "t_array(t_struct(CheckIn)6_storage)dyn_storage"
					},
					{
						"astId": 46,
						"contract": "simpleStorage.sol:SimpleStorage",
						"label": "rewards",
						"offset": 0,
						"slot": "5",
						"type": "t_array(t_struct(Rewards)15_storage)dyn_storage"
					},
					{
						"astId": 50,
						"contract": "simpleStorage.sol:SimpleStorage",
						"label": "claimed",
						"offset": 0,
						"slot": "6",
						"type": "t_array(t_struct(Claimed)20_storage)dyn_storage"
					}
				],
				"types": {
					"t_address": {
						"encoding": "inplace",
						"label": "address",
						"numberOfBytes": "20"
					},
					"t_array(t_struct(CheckIn)6_storage)dyn_storage": {
						"base": "t_struct(CheckIn)6_storage",
						"encoding": "dynamic_array",
						"label": "struct SimpleStorage.CheckIn[]",
						"numberOfBytes": "32"
					},
					"t_array(t_struct(Claimed)20_storage)dyn_storage": {
						"base": "t_struct(Claimed)20_storage",
						"encoding": "dynamic_array",
						"label": "struct SimpleStorage.Claimed[]",
						"numberOfBytes": "32"
					},
					"t_array(t_struct(Rewards)15_storage)dyn_storage": {
						"base": "t_struct(Rewards)15_storage",
						"encoding": "dynamic_array",
						"label": "struct SimpleStorage.Rewards[]",
						"numberOfBytes": "32"
					},
					"t_mapping(t_address,t_struct(Claimed)20_storage)": {
						"encoding": "mapping",
						"key": "t_address",
						"label": "mapping(address => struct SimpleStorage.Claimed)",
						"numberOfBytes": "32",
						"value": "t_struct(Claimed)20_storage"
					},
					"t_mapping(t_address,t_uint256)": {
						"encoding": "mapping",
						"key": "t_address",
						"label": "mapping(address => uint256)",
						"numberOfBytes": "32",
						"value": "t_uint256"
					},
					"t_mapping(t_uint256,t_struct(Rewards)15_storage)": {
						"encoding": "mapping",
						"key": "t_uint256",
						"label": "mapping(uint256 => struct SimpleStorage.Rewards)",
						"numberOfBytes": "32",
						"value": "t_struct(Rewards)15_storage"
					},
					"t_string_storage": {
						"encoding": "bytes",
						"label": "string",
						"numberOfBytes": "32"
					},
					"t_struct(CheckIn)6_storage": {
						"encoding": "inplace",
						"label": "struct SimpleStorage.CheckIn",
						"members": [
							{
								"astId": 3,
								"contract": "simpleStorage.sol:SimpleStorage",
								"label": "addr",
								"offset": 0,
								"slot": "0",
								"type": "t_address"
							},
							{
								"astId": 5,
								"contract": "simpleStorage.sol:SimpleStorage",
								"label": "timestamp",
								"offset": 0,
								"slot": "1",
								"type": "t_uint256"
							}
						],
						"numberOfBytes": "64"
					},
					"t_struct(Claimed)20_storage": {
						"encoding": "inplace",
						"label": "struct SimpleStorage.Claimed",
						"members": [
							{
								"astId": 17,
								"contract": "simpleStorage.sol:SimpleStorage",
								"label": "id",
								"offset": 0,
								"slot": "0",
								"type": "t_uint256"
							},
							{
								"astId": 19,
								"contract": "simpleStorage.sol:SimpleStorage",
								"label": "timestamp",
								"offset": 0,
								"slot": "1",
								"type": "t_uint256"
							}
						],
						"numberOfBytes": "64"
					},
					"t_struct(Rewards)15_storage": {
						"encoding": "inplace",
						"label": "struct SimpleStorage.Rewards",
						"members": [
							{
								"astId": 8,
								"contract": "simpleStorage.sol:SimpleStorage",
								"label": "id",
								"offset": 0,
								"slot": "0",
								"type": "t_uint256"
							},
							{
								"astId": 10,
								"contract": "simpleStorage.sol:SimpleStorage",
								"label": "name",
								"offset": 0,
								"slot": "1",
								"type": "t_string_storage"
							},
							{
								"astId": 12,
								"contract": "simpleStorage.sol:SimpleStorage",
								"label": "needPoints",
								"offset": 0,
								"slot": "2",
								"type": "t_uint256"
							},
							{
								"astId": 14,
								"contract": "simpleStorage.sol:SimpleStorage",
								"label": "needItems",
								"offset": 0,
								"slot": "3",
								"type": "t_uint256"
							}
						],
						"numberOfBytes": "128"
					},
					"t_uint256": {
						"encoding": "inplace",
						"label": "uint256",
						"numberOfBytes": "32"
					}
				}
			},
			"userdoc": {
				"kind": "user",
				"methods": {},
				"version": 1
			}
		}
	}
}